{
	"learn-functions.sol": {
		"learnFunctions": {
			"abi": [
				{
					"inputs": [],
					"name": "addNewValues",
					"outputs": [
						{
							"internalType": "uint256",
							"name": "",
							"type": "uint256"
						}
					],
					"stateMutability": "view",
					"type": "function"
				},
				{
					"inputs": [],
					"name": "addValues",
					"outputs": [
						{
							"internalType": "uint256",
							"name": "",
							"type": "uint256"
						}
					],
					"stateMutability": "view",
					"type": "function"
				},
				{
					"inputs": [
						{
							"internalType": "bool",
							"name": "closedDoor",
							"type": "bool"
						}
					],
					"name": "remoteControlOpen",
					"outputs": [
						{
							"internalType": "bool",
							"name": "",
							"type": "bool"
						}
					],
					"stateMutability": "nonpayable",
					"type": "function"
				}
			],
			"devdoc": {
				"kind": "dev",
				"methods": {},
				"version": 1
			},
			"evm": {
				"assembly": "    /* \"learn-functions.sol\":176:875  contract learnFunctions {\r... */\n  mstore(0x40, 0x80)\n    /* \"learn-functions.sol\":357:358  3 */\n  0x03\n    /* \"learn-functions.sol\":348:358  uint a = 3 */\n  0x00\n  sstore\n    /* \"learn-functions.sol\":176:875  contract learnFunctions {\r... */\n  callvalue\n  dup1\n  iszero\n  tag_1\n  jumpi\n  0x00\n  dup1\n  revert\ntag_1:\n  pop\n  dataSize(sub_0)\n  dup1\n  dataOffset(sub_0)\n  0x00\n  codecopy\n  0x00\n  return\nstop\n\nsub_0: assembly {\n        /* \"learn-functions.sol\":176:875  contract learnFunctions {\r... */\n      mstore(0x40, 0x80)\n      callvalue\n      dup1\n      iszero\n      tag_1\n      jumpi\n      0x00\n      dup1\n      revert\n    tag_1:\n      pop\n      jumpi(tag_2, lt(calldatasize, 0x04))\n      shr(0xe0, calldataload(0x00))\n      dup1\n      0x166e7bdd\n      eq\n      tag_3\n      jumpi\n      dup1\n      0x273d1a3e\n      eq\n      tag_4\n      jumpi\n      dup1\n      0xe581bdca\n      eq\n      tag_5\n      jumpi\n    tag_2:\n      0x00\n      dup1\n      revert\n        /* \"learn-functions.sol\":515:699  function addValues() public view returns(uint) \r... */\n    tag_3:\n      tag_6\n      tag_7\n      jump\t// in\n    tag_6:\n      mload(0x40)\n      tag_8\n      swap2\n      swap1\n      tag_9\n      jump\t// in\n    tag_8:\n      mload(0x40)\n      dup1\n      swap2\n      sub\n      swap1\n      return\n        /* \"learn-functions.sol\":386:507  function remoteControlOpen(bool closedDoor ) public returns(bool)\r... */\n    tag_4:\n      tag_10\n      0x04\n      dup1\n      calldatasize\n      sub\n      dup2\n      add\n      swap1\n      tag_11\n      swap2\n      swap1\n      tag_12\n      jump\t// in\n    tag_11:\n      tag_13\n      jump\t// in\n    tag_10:\n      mload(0x40)\n      tag_14\n      swap2\n      swap1\n      tag_15\n      jump\t// in\n    tag_14:\n      mload(0x40)\n      dup1\n      swap2\n      sub\n      swap1\n      return\n        /* \"learn-functions.sol\":707:869  function addNewValues() public view returns (uint)\r... */\n    tag_5:\n      tag_16\n      tag_17\n      jump\t// in\n    tag_16:\n      mload(0x40)\n      tag_18\n      swap2\n      swap1\n      tag_9\n      jump\t// in\n    tag_18:\n      mload(0x40)\n      dup1\n      swap2\n      sub\n      swap1\n      return\n        /* \"learn-functions.sol\":515:699  function addValues() public view returns(uint) \r... */\n    tag_7:\n        /* \"learn-functions.sol\":556:560  uint */\n      0x00\n        /* \"learn-functions.sol\":579:585  uint a */\n      dup1\n        /* \"learn-functions.sol\":588:590  10 */\n      0x0a\n        /* \"learn-functions.sol\":579:590  uint a = 10 */\n      swap1\n      pop\n        /* \"learn-functions.sol\":627:633  uint b */\n      0x00\n        /* \"learn-functions.sol\":636:637  5 */\n      0x05\n        /* \"learn-functions.sol\":627:637  uint b = 5 */\n      swap1\n      pop\n        /* \"learn-functions.sol\":648:659  uint result */\n      0x00\n        /* \"learn-functions.sol\":666:667  b */\n      dup2\n        /* \"learn-functions.sol\":662:663  a */\n      dup4\n        /* \"learn-functions.sol\":662:667  a + b */\n      tag_20\n      swap2\n      swap1\n      tag_21\n      jump\t// in\n    tag_20:\n        /* \"learn-functions.sol\":648:667  uint result = a + b */\n      swap1\n      pop\n        /* \"learn-functions.sol\":685:691  result */\n      dup1\n        /* \"learn-functions.sol\":678:691  return result */\n      swap4\n      pop\n      pop\n      pop\n      pop\n        /* \"learn-functions.sol\":515:699  function addValues() public view returns(uint) \r... */\n      swap1\n      jump\t// out\n        /* \"learn-functions.sol\":386:507  function remoteControlOpen(bool closedDoor ) public returns(bool)\r... */\n    tag_13:\n        /* \"learn-functions.sol\":446:450  bool */\n      0x00\n        /* \"learn-functions.sol\":386:507  function remoteControlOpen(bool closedDoor ) public returns(bool)\r... */\n      swap2\n      swap1\n      pop\n      jump\t// out\n        /* \"learn-functions.sol\":707:869  function addNewValues() public view returns (uint)\r... */\n    tag_17:\n        /* \"learn-functions.sol\":752:756  uint */\n      0x00\n        /* \"learn-functions.sol\":774:780  uint a */\n      dup1\n        /* \"learn-functions.sol\":783:785  15 */\n      0x0f\n        /* \"learn-functions.sol\":774:785  uint a = 15 */\n      swap1\n      pop\n        /* \"learn-functions.sol\":796:802  uint b */\n      0x00\n        /* \"learn-functions.sol\":805:807  20 */\n      0x14\n        /* \"learn-functions.sol\":796:807  uint b = 20 */\n      swap1\n      pop\n        /* \"learn-functions.sol\":818:829  uint result */\n      0x00\n        /* \"learn-functions.sol\":836:837  b */\n      dup2\n        /* \"learn-functions.sol\":832:833  a */\n      dup4\n        /* \"learn-functions.sol\":832:837  a + b */\n      tag_24\n      swap2\n      swap1\n      tag_21\n      jump\t// in\n    tag_24:\n        /* \"learn-functions.sol\":818:837  uint result = a + b */\n      swap1\n      pop\n        /* \"learn-functions.sol\":855:861  result */\n      dup1\n        /* \"learn-functions.sol\":848:861  return result */\n      swap4\n      pop\n      pop\n      pop\n      pop\n        /* \"learn-functions.sol\":707:869  function addNewValues() public view returns (uint)\r... */\n      swap1\n      jump\t// out\n        /* \"#utility.yul\":7:140   */\n    tag_26:\n        /* \"#utility.yul\":50:55   */\n      0x00\n        /* \"#utility.yul\":88:94   */\n      dup2\n        /* \"#utility.yul\":75:95   */\n      calldataload\n        /* \"#utility.yul\":66:95   */\n      swap1\n      pop\n        /* \"#utility.yul\":104:134   */\n      tag_28\n        /* \"#utility.yul\":128:133   */\n      dup2\n        /* \"#utility.yul\":104:134   */\n      tag_29\n      jump\t// in\n    tag_28:\n        /* \"#utility.yul\":7:140   */\n      swap3\n      swap2\n      pop\n      pop\n      jump\t// out\n        /* \"#utility.yul\":146:469   */\n    tag_12:\n        /* \"#utility.yul\":202:208   */\n      0x00\n        /* \"#utility.yul\":251:253   */\n      0x20\n        /* \"#utility.yul\":239:248   */\n      dup3\n        /* \"#utility.yul\":230:237   */\n      dup5\n        /* \"#utility.yul\":226:249   */\n      sub\n        /* \"#utility.yul\":222:254   */\n      slt\n        /* \"#utility.yul\":219:338   */\n      iszero\n      tag_31\n      jumpi\n        /* \"#utility.yul\":257:336   */\n      tag_32\n      tag_33\n      jump\t// in\n    tag_32:\n        /* \"#utility.yul\":219:338   */\n    tag_31:\n        /* \"#utility.yul\":377:378   */\n      0x00\n        /* \"#utility.yul\":402:452   */\n      tag_34\n        /* \"#utility.yul\":444:451   */\n      dup5\n        /* \"#utility.yul\":435:441   */\n      dup3\n        /* \"#utility.yul\":424:433   */\n      dup6\n        /* \"#utility.yul\":420:442   */\n      add\n        /* \"#utility.yul\":402:452   */\n      tag_26\n      jump\t// in\n    tag_34:\n        /* \"#utility.yul\":392:452   */\n      swap2\n      pop\n        /* \"#utility.yul\":348:462   */\n      pop\n        /* \"#utility.yul\":146:469   */\n      swap3\n      swap2\n      pop\n      pop\n      jump\t// out\n        /* \"#utility.yul\":475:584   */\n    tag_35:\n        /* \"#utility.yul\":556:577   */\n      tag_37\n        /* \"#utility.yul\":571:576   */\n      dup2\n        /* \"#utility.yul\":556:577   */\n      tag_38\n      jump\t// in\n    tag_37:\n        /* \"#utility.yul\":551:554   */\n      dup3\n        /* \"#utility.yul\":544:578   */\n      mstore\n        /* \"#utility.yul\":475:584   */\n      pop\n      pop\n      jump\t// out\n        /* \"#utility.yul\":590:708   */\n    tag_39:\n        /* \"#utility.yul\":677:701   */\n      tag_41\n        /* \"#utility.yul\":695:700   */\n      dup2\n        /* \"#utility.yul\":677:701   */\n      tag_42\n      jump\t// in\n    tag_41:\n        /* \"#utility.yul\":672:675   */\n      dup3\n        /* \"#utility.yul\":665:702   */\n      mstore\n        /* \"#utility.yul\":590:708   */\n      pop\n      pop\n      jump\t// out\n        /* \"#utility.yul\":714:924   */\n    tag_15:\n        /* \"#utility.yul\":801:805   */\n      0x00\n        /* \"#utility.yul\":839:841   */\n      0x20\n        /* \"#utility.yul\":828:837   */\n      dup3\n        /* \"#utility.yul\":824:842   */\n      add\n        /* \"#utility.yul\":816:842   */\n      swap1\n      pop\n        /* \"#utility.yul\":852:917   */\n      tag_44\n        /* \"#utility.yul\":914:915   */\n      0x00\n        /* \"#utility.yul\":903:912   */\n      dup4\n        /* \"#utility.yul\":899:916   */\n      add\n        /* \"#utility.yul\":890:896   */\n      dup5\n        /* \"#utility.yul\":852:917   */\n      tag_35\n      jump\t// in\n    tag_44:\n        /* \"#utility.yul\":714:924   */\n      swap3\n      swap2\n      pop\n      pop\n      jump\t// out\n        /* \"#utility.yul\":930:1152   */\n    tag_9:\n        /* \"#utility.yul\":1023:1027   */\n      0x00\n        /* \"#utility.yul\":1061:1063   */\n      0x20\n        /* \"#utility.yul\":1050:1059   */\n      dup3\n        /* \"#utility.yul\":1046:1064   */\n      add\n        /* \"#utility.yul\":1038:1064   */\n      swap1\n      pop\n        /* \"#utility.yul\":1074:1145   */\n      tag_46\n        /* \"#utility.yul\":1142:1143   */\n      0x00\n        /* \"#utility.yul\":1131:1140   */\n      dup4\n        /* \"#utility.yul\":1127:1144   */\n      add\n        /* \"#utility.yul\":1118:1124   */\n      dup5\n        /* \"#utility.yul\":1074:1145   */\n      tag_39\n      jump\t// in\n    tag_46:\n        /* \"#utility.yul\":930:1152   */\n      swap3\n      swap2\n      pop\n      pop\n      jump\t// out\n        /* \"#utility.yul\":1239:1544   */\n    tag_21:\n        /* \"#utility.yul\":1279:1282   */\n      0x00\n        /* \"#utility.yul\":1298:1318   */\n      tag_50\n        /* \"#utility.yul\":1316:1317   */\n      dup3\n        /* \"#utility.yul\":1298:1318   */\n      tag_42\n      jump\t// in\n    tag_50:\n        /* \"#utility.yul\":1293:1318   */\n      swap2\n      pop\n        /* \"#utility.yul\":1332:1352   */\n      tag_51\n        /* \"#utility.yul\":1350:1351   */\n      dup4\n        /* \"#utility.yul\":1332:1352   */\n      tag_42\n      jump\t// in\n    tag_51:\n        /* \"#utility.yul\":1327:1352   */\n      swap3\n      pop\n        /* \"#utility.yul\":1486:1487   */\n      dup3\n        /* \"#utility.yul\":1418:1484   */\n      0xffffffffffffffffffffffffffffffffffffffffffffffffffffffffffffffff\n        /* \"#utility.yul\":1414:1488   */\n      sub\n        /* \"#utility.yul\":1411:1412   */\n      dup3\n        /* \"#utility.yul\":1408:1489   */\n      gt\n        /* \"#utility.yul\":1405:1512   */\n      iszero\n      tag_52\n      jumpi\n        /* \"#utility.yul\":1492:1510   */\n      tag_53\n      tag_54\n      jump\t// in\n    tag_53:\n        /* \"#utility.yul\":1405:1512   */\n    tag_52:\n        /* \"#utility.yul\":1536:1537   */\n      dup3\n        /* \"#utility.yul\":1533:1534   */\n      dup3\n        /* \"#utility.yul\":1529:1538   */\n      add\n        /* \"#utility.yul\":1522:1538   */\n      swap1\n      pop\n        /* \"#utility.yul\":1239:1544   */\n      swap3\n      swap2\n      pop\n      pop\n      jump\t// out\n        /* \"#utility.yul\":1550:1640   */\n    tag_38:\n        /* \"#utility.yul\":1584:1591   */\n      0x00\n        /* \"#utility.yul\":1627:1632   */\n      dup2\n        /* \"#utility.yul\":1620:1633   */\n      iszero\n        /* \"#utility.yul\":1613:1634   */\n      iszero\n        /* \"#utility.yul\":1602:1634   */\n      swap1\n      pop\n        /* \"#utility.yul\":1550:1640   */\n      swap2\n      swap1\n      pop\n      jump\t// out\n        /* \"#utility.yul\":1646:1723   */\n    tag_42:\n        /* \"#utility.yul\":1683:1690   */\n      0x00\n        /* \"#utility.yul\":1712:1717   */\n      dup2\n        /* \"#utility.yul\":1701:1717   */\n      swap1\n      pop\n        /* \"#utility.yul\":1646:1723   */\n      swap2\n      swap1\n      pop\n      jump\t// out\n        /* \"#utility.yul\":1729:1909   */\n    tag_54:\n        /* \"#utility.yul\":1777:1854   */\n      0x4e487b7100000000000000000000000000000000000000000000000000000000\n        /* \"#utility.yul\":1774:1775   */\n      0x00\n        /* \"#utility.yul\":1767:1855   */\n      mstore\n        /* \"#utility.yul\":1874:1878   */\n      0x11\n        /* \"#utility.yul\":1871:1872   */\n      0x04\n        /* \"#utility.yul\":1864:1879   */\n      mstore\n        /* \"#utility.yul\":1898:1902   */\n      0x24\n        /* \"#utility.yul\":1895:1896   */\n      0x00\n        /* \"#utility.yul\":1888:1903   */\n      revert\n        /* \"#utility.yul\":2038:2155   */\n    tag_33:\n        /* \"#utility.yul\":2147:2148   */\n      0x00\n        /* \"#utility.yul\":2144:2145   */\n      dup1\n        /* \"#utility.yul\":2137:2149   */\n      revert\n        /* \"#utility.yul\":2161:2277   */\n    tag_29:\n        /* \"#utility.yul\":2231:2252   */\n      tag_62\n        /* \"#utility.yul\":2246:2251   */\n      dup2\n        /* \"#utility.yul\":2231:2252   */\n      tag_38\n      jump\t// in\n    tag_62:\n        /* \"#utility.yul\":2224:2229   */\n      dup2\n        /* \"#utility.yul\":2221:2253   */\n      eq\n        /* \"#utility.yul\":2211:2271   */\n      tag_63\n      jumpi\n        /* \"#utility.yul\":2267:2268   */\n      0x00\n        /* \"#utility.yul\":2264:2265   */\n      dup1\n        /* \"#utility.yul\":2257:2269   */\n      revert\n        /* \"#utility.yul\":2211:2271   */\n    tag_63:\n        /* \"#utility.yul\":2161:2277   */\n      pop\n      jump\t// out\n\n    auxdata: 0xa26469706673582212202aa7d0586dbd3f6e782e3fffe9f9582250dc15bce4af83b0e02ad94bc58ebf6264736f6c63430008070033\n}\n",
				"bytecode": {
					"linkReferences": {},
					"object": "6080604052600360005534801561001557600080fd5b50610288806100256000396000f3fe608060405234801561001057600080fd5b50600436106100415760003560e01c8063166e7bdd14610046578063273d1a3e14610064578063e581bdca14610094575b600080fd5b61004e6100b2565b60405161005b9190610180565b60405180910390f35b61007e6004803603810190610079919061011a565b6100d8565b60405161008b9190610165565b60405180910390f35b61009c6100df565b6040516100a99190610180565b60405180910390f35b600080600a9050600060059050600081836100cd919061019b565b905080935050505090565b6000919050565b600080600f9050600060149050600081836100fa919061019b565b905080935050505090565b6000813590506101148161023b565b92915050565b6000602082840312156101305761012f610236565b5b600061013e84828501610105565b91505092915050565b610150816101f1565b82525050565b61015f816101fd565b82525050565b600060208201905061017a6000830184610147565b92915050565b60006020820190506101956000830184610156565b92915050565b60006101a6826101fd565b91506101b1836101fd565b9250827fffffffffffffffffffffffffffffffffffffffffffffffffffffffffffffffff038211156101e6576101e5610207565b5b828201905092915050565b60008115159050919050565b6000819050919050565b7f4e487b7100000000000000000000000000000000000000000000000000000000600052601160045260246000fd5b600080fd5b610244816101f1565b811461024f57600080fd5b5056fea26469706673582212202aa7d0586dbd3f6e782e3fffe9f9582250dc15bce4af83b0e02ad94bc58ebf6264736f6c63430008070033",
					"opcodes": "PUSH1 0x80 PUSH1 0x40 MSTORE PUSH1 0x3 PUSH1 0x0 SSTORE CALLVALUE DUP1 ISZERO PUSH2 0x15 JUMPI PUSH1 0x0 DUP1 REVERT JUMPDEST POP PUSH2 0x288 DUP1 PUSH2 0x25 PUSH1 0x0 CODECOPY PUSH1 0x0 RETURN INVALID PUSH1 0x80 PUSH1 0x40 MSTORE CALLVALUE DUP1 ISZERO PUSH2 0x10 JUMPI PUSH1 0x0 DUP1 REVERT JUMPDEST POP PUSH1 0x4 CALLDATASIZE LT PUSH2 0x41 JUMPI PUSH1 0x0 CALLDATALOAD PUSH1 0xE0 SHR DUP1 PUSH4 0x166E7BDD EQ PUSH2 0x46 JUMPI DUP1 PUSH4 0x273D1A3E EQ PUSH2 0x64 JUMPI DUP1 PUSH4 0xE581BDCA EQ PUSH2 0x94 JUMPI JUMPDEST PUSH1 0x0 DUP1 REVERT JUMPDEST PUSH2 0x4E PUSH2 0xB2 JUMP JUMPDEST PUSH1 0x40 MLOAD PUSH2 0x5B SWAP2 SWAP1 PUSH2 0x180 JUMP JUMPDEST PUSH1 0x40 MLOAD DUP1 SWAP2 SUB SWAP1 RETURN JUMPDEST PUSH2 0x7E PUSH1 0x4 DUP1 CALLDATASIZE SUB DUP2 ADD SWAP1 PUSH2 0x79 SWAP2 SWAP1 PUSH2 0x11A JUMP JUMPDEST PUSH2 0xD8 JUMP JUMPDEST PUSH1 0x40 MLOAD PUSH2 0x8B SWAP2 SWAP1 PUSH2 0x165 JUMP JUMPDEST PUSH1 0x40 MLOAD DUP1 SWAP2 SUB SWAP1 RETURN JUMPDEST PUSH2 0x9C PUSH2 0xDF JUMP JUMPDEST PUSH1 0x40 MLOAD PUSH2 0xA9 SWAP2 SWAP1 PUSH2 0x180 JUMP JUMPDEST PUSH1 0x40 MLOAD DUP1 SWAP2 SUB SWAP1 RETURN JUMPDEST PUSH1 0x0 DUP1 PUSH1 0xA SWAP1 POP PUSH1 0x0 PUSH1 0x5 SWAP1 POP PUSH1 0x0 DUP2 DUP4 PUSH2 0xCD SWAP2 SWAP1 PUSH2 0x19B JUMP JUMPDEST SWAP1 POP DUP1 SWAP4 POP POP POP POP SWAP1 JUMP JUMPDEST PUSH1 0x0 SWAP2 SWAP1 POP JUMP JUMPDEST PUSH1 0x0 DUP1 PUSH1 0xF SWAP1 POP PUSH1 0x0 PUSH1 0x14 SWAP1 POP PUSH1 0x0 DUP2 DUP4 PUSH2 0xFA SWAP2 SWAP1 PUSH2 0x19B JUMP JUMPDEST SWAP1 POP DUP1 SWAP4 POP POP POP POP SWAP1 JUMP JUMPDEST PUSH1 0x0 DUP2 CALLDATALOAD SWAP1 POP PUSH2 0x114 DUP2 PUSH2 0x23B JUMP JUMPDEST SWAP3 SWAP2 POP POP JUMP JUMPDEST PUSH1 0x0 PUSH1 0x20 DUP3 DUP5 SUB SLT ISZERO PUSH2 0x130 JUMPI PUSH2 0x12F PUSH2 0x236 JUMP JUMPDEST JUMPDEST PUSH1 0x0 PUSH2 0x13E DUP5 DUP3 DUP6 ADD PUSH2 0x105 JUMP JUMPDEST SWAP2 POP POP SWAP3 SWAP2 POP POP JUMP JUMPDEST PUSH2 0x150 DUP2 PUSH2 0x1F1 JUMP JUMPDEST DUP3 MSTORE POP POP JUMP JUMPDEST PUSH2 0x15F DUP2 PUSH2 0x1FD JUMP JUMPDEST DUP3 MSTORE POP POP JUMP JUMPDEST PUSH1 0x0 PUSH1 0x20 DUP3 ADD SWAP1 POP PUSH2 0x17A PUSH1 0x0 DUP4 ADD DUP5 PUSH2 0x147 JUMP JUMPDEST SWAP3 SWAP2 POP POP JUMP JUMPDEST PUSH1 0x0 PUSH1 0x20 DUP3 ADD SWAP1 POP PUSH2 0x195 PUSH1 0x0 DUP4 ADD DUP5 PUSH2 0x156 JUMP JUMPDEST SWAP3 SWAP2 POP POP JUMP JUMPDEST PUSH1 0x0 PUSH2 0x1A6 DUP3 PUSH2 0x1FD JUMP JUMPDEST SWAP2 POP PUSH2 0x1B1 DUP4 PUSH2 0x1FD JUMP JUMPDEST SWAP3 POP DUP3 PUSH32 0xFFFFFFFFFFFFFFFFFFFFFFFFFFFFFFFFFFFFFFFFFFFFFFFFFFFFFFFFFFFFFFFF SUB DUP3 GT ISZERO PUSH2 0x1E6 JUMPI PUSH2 0x1E5 PUSH2 0x207 JUMP JUMPDEST JUMPDEST DUP3 DUP3 ADD SWAP1 POP SWAP3 SWAP2 POP POP JUMP JUMPDEST PUSH1 0x0 DUP2 ISZERO ISZERO SWAP1 POP SWAP2 SWAP1 POP JUMP JUMPDEST PUSH1 0x0 DUP2 SWAP1 POP SWAP2 SWAP1 POP JUMP JUMPDEST PUSH32 0x4E487B7100000000000000000000000000000000000000000000000000000000 PUSH1 0x0 MSTORE PUSH1 0x11 PUSH1 0x4 MSTORE PUSH1 0x24 PUSH1 0x0 REVERT JUMPDEST PUSH1 0x0 DUP1 REVERT JUMPDEST PUSH2 0x244 DUP2 PUSH2 0x1F1 JUMP JUMPDEST DUP2 EQ PUSH2 0x24F JUMPI PUSH1 0x0 DUP1 REVERT JUMPDEST POP JUMP INVALID LOG2 PUSH5 0x6970667358 0x22 SLT KECCAK256 0x2A 0xA7 0xD0 PC PUSH14 0xBD3F6E782E3FFFE9F9582250DC15 0xBC 0xE4 0xAF DUP4 0xB0 0xE0 0x2A 0xD9 0x4B 0xC5 DUP15 0xBF PUSH3 0x64736F PUSH13 0x63430008070033000000000000 "
				},
				"gasEstimates": {
					"creation": {
						"codeDepositCost": "129600",
						"executionCost": "22283",
						"totalCost": "151883"
					},
					"external": {
						"addNewValues()": "infinite",
						"addValues()": "infinite",
						"remoteControlOpen(bool)": "infinite"
					}
				},
				"methodIdentifiers": {
					"addNewValues()": "e581bdca",
					"addValues()": "166e7bdd",
					"remoteControlOpen(bool)": "273d1a3e"
				}
			},
			"storageLayout": {
				"storage": [
					{
						"astId": 4,
						"contract": "learn-functions.sol:learnFunctions",
						"label": "a",
						"offset": 0,
						"slot": "0",
						"type": "t_uint256"
					}
				],
				"types": {
					"t_uint256": {
						"encoding": "inplace",
						"label": "uint256",
						"numberOfBytes": "32"
					}
				}
			},
			"userdoc": {
				"kind": "user",
				"methods": {},
				"version": 1
			}
		}
	}
}