{
	"learn-functions.sol": {
		"learnFunctions": {
			"abi": [
				{
					"inputs": [],
					"name": "addNewValues",
					"outputs": [
						{
							"internalType": "uint256",
							"name": "",
							"type": "uint256"
						}
					],
					"stateMutability": "pure",
					"type": "function"
				},
				{
					"inputs": [],
					"name": "addValues",
					"outputs": [
						{
							"internalType": "uint256",
							"name": "",
							"type": "uint256"
						}
					],
					"stateMutability": "pure",
					"type": "function"
				},
				{
					"inputs": [],
					"name": "multiplyCalculator",
					"outputs": [
						{
							"internalType": "uint256",
							"name": "",
							"type": "uint256"
						}
					],
					"stateMutability": "pure",
					"type": "function"
				},
				{
					"inputs": [
						{
							"internalType": "bool",
							"name": "closedDoor",
							"type": "bool"
						}
					],
					"name": "remoteControlOpen",
					"outputs": [
						{
							"internalType": "bool",
							"name": "",
							"type": "bool"
						}
					],
					"stateMutability": "nonpayable",
					"type": "function"
				}
			],
			"devdoc": {
				"kind": "dev",
				"methods": {},
				"version": 1
			},
			"evm": {
				"assembly": "    /* \"learn-functions.sol\":176:1052  contract learnFunctions {\r... */\n  mstore(0x40, 0x80)\n  callvalue\n  dup1\n  iszero\n  tag_1\n  jumpi\n  0x00\n  dup1\n  revert\ntag_1:\n  pop\n  dataSize(sub_0)\n  dup1\n  dataOffset(sub_0)\n  0x00\n  codecopy\n  0x00\n  return\nstop\n\nsub_0: assembly {\n        /* \"learn-functions.sol\":176:1052  contract learnFunctions {\r... */\n      mstore(0x40, 0x80)\n      callvalue\n      dup1\n      iszero\n      tag_1\n      jumpi\n      0x00\n      dup1\n      revert\n    tag_1:\n      pop\n      jumpi(tag_2, lt(calldatasize, 0x04))\n      shr(0xe0, calldataload(0x00))\n      dup1\n      0x166e7bdd\n      eq\n      tag_3\n      jumpi\n      dup1\n      0x273d1a3e\n      eq\n      tag_4\n      jumpi\n      dup1\n      0x400bd172\n      eq\n      tag_5\n      jumpi\n      dup1\n      0xe581bdca\n      eq\n      tag_6\n      jumpi\n    tag_2:\n      0x00\n      dup1\n      revert\n        /* \"learn-functions.sol\":517:701  function addValues() public pure returns(uint) \r... */\n    tag_3:\n      tag_7\n      tag_8\n      jump\t// in\n    tag_7:\n      mload(0x40)\n      tag_9\n      swap2\n      swap1\n      tag_10\n      jump\t// in\n    tag_9:\n      mload(0x40)\n      dup1\n      swap2\n      sub\n      swap1\n      return\n        /* \"learn-functions.sol\":388:509  function remoteControlOpen(bool closedDoor ) public returns(bool)\r... */\n    tag_4:\n      tag_11\n      0x04\n      dup1\n      calldatasize\n      sub\n      dup2\n      add\n      swap1\n      tag_12\n      swap2\n      swap1\n      tag_13\n      jump\t// in\n    tag_12:\n      tag_14\n      jump\t// in\n    tag_11:\n      mload(0x40)\n      tag_15\n      swap2\n      swap1\n      tag_16\n      jump\t// in\n    tag_15:\n      mload(0x40)\n      dup1\n      swap2\n      sub\n      swap1\n      return\n        /* \"learn-functions.sol\":880:1047  function multiplyCalculator() public pure returns(uint)\r... */\n    tag_5:\n      tag_17\n      tag_18\n      jump\t// in\n    tag_17:\n      mload(0x40)\n      tag_19\n      swap2\n      swap1\n      tag_10\n      jump\t// in\n    tag_19:\n      mload(0x40)\n      dup1\n      swap2\n      sub\n      swap1\n      return\n        /* \"learn-functions.sol\":709:871  function addNewValues() public pure returns (uint)\r... */\n    tag_6:\n      tag_20\n      tag_21\n      jump\t// in\n    tag_20:\n      mload(0x40)\n      tag_22\n      swap2\n      swap1\n      tag_10\n      jump\t// in\n    tag_22:\n      mload(0x40)\n      dup1\n      swap2\n      sub\n      swap1\n      return\n        /* \"learn-functions.sol\":517:701  function addValues() public pure returns(uint) \r... */\n    tag_8:\n        /* \"learn-functions.sol\":558:562  uint */\n      0x00\n        /* \"learn-functions.sol\":581:587  uint a */\n      dup1\n        /* \"learn-functions.sol\":590:592  10 */\n      0x0a\n        /* \"learn-functions.sol\":581:592  uint a = 10 */\n      swap1\n      pop\n        /* \"learn-functions.sol\":629:635  uint b */\n      0x00\n        /* \"learn-functions.sol\":638:639  5 */\n      0x05\n        /* \"learn-functions.sol\":629:639  uint b = 5 */\n      swap1\n      pop\n        /* \"learn-functions.sol\":650:661  uint result */\n      0x00\n        /* \"learn-functions.sol\":668:669  b */\n      dup2\n        /* \"learn-functions.sol\":664:665  a */\n      dup4\n        /* \"learn-functions.sol\":664:669  a + b */\n      tag_24\n      swap2\n      swap1\n      tag_25\n      jump\t// in\n    tag_24:\n        /* \"learn-functions.sol\":650:669  uint result = a + b */\n      swap1\n      pop\n        /* \"learn-functions.sol\":687:693  result */\n      dup1\n        /* \"learn-functions.sol\":680:693  return result */\n      swap4\n      pop\n      pop\n      pop\n      pop\n        /* \"learn-functions.sol\":517:701  function addValues() public pure returns(uint) \r... */\n      swap1\n      jump\t// out\n        /* \"learn-functions.sol\":388:509  function remoteControlOpen(bool closedDoor ) public returns(bool)\r... */\n    tag_14:\n        /* \"learn-functions.sol\":448:452  bool */\n      0x00\n        /* \"learn-functions.sol\":388:509  function remoteControlOpen(bool closedDoor ) public returns(bool)\r... */\n      swap2\n      swap1\n      pop\n      jump\t// out\n        /* \"learn-functions.sol\":880:1047  function multiplyCalculator() public pure returns(uint)\r... */\n    tag_18:\n        /* \"learn-functions.sol\":930:934  uint */\n      0x00\n        /* \"learn-functions.sol\":952:958  uint a */\n      dup1\n        /* \"learn-functions.sol\":961:963  14 */\n      0x0e\n        /* \"learn-functions.sol\":952:963  uint a = 14 */\n      swap1\n      pop\n        /* \"learn-functions.sol\":974:980  uint b */\n      0x00\n        /* \"learn-functions.sol\":983:985  12 */\n      0x0c\n        /* \"learn-functions.sol\":974:985  uint b = 12 */\n      swap1\n      pop\n        /* \"learn-functions.sol\":996:1007  uint result */\n      0x00\n        /* \"learn-functions.sol\":1014:1015  b */\n      dup2\n        /* \"learn-functions.sol\":1010:1011  a */\n      dup4\n        /* \"learn-functions.sol\":1010:1015  a * b */\n      tag_28\n      swap2\n      swap1\n      tag_29\n      jump\t// in\n    tag_28:\n        /* \"learn-functions.sol\":996:1015  uint result = a * b */\n      swap1\n      pop\n        /* \"learn-functions.sol\":1033:1039  result */\n      dup1\n        /* \"learn-functions.sol\":1026:1039  return result */\n      swap4\n      pop\n      pop\n      pop\n      pop\n        /* \"learn-functions.sol\":880:1047  function multiplyCalculator() public pure returns(uint)\r... */\n      swap1\n      jump\t// out\n        /* \"learn-functions.sol\":709:871  function addNewValues() public pure returns (uint)\r... */\n    tag_21:\n        /* \"learn-functions.sol\":754:758  uint */\n      0x00\n        /* \"learn-functions.sol\":776:782  uint a */\n      dup1\n        /* \"learn-functions.sol\":785:787  15 */\n      0x0f\n        /* \"learn-functions.sol\":776:787  uint a = 15 */\n      swap1\n      pop\n        /* \"learn-functions.sol\":798:804  uint b */\n      0x00\n        /* \"learn-functions.sol\":807:809  20 */\n      0x14\n        /* \"learn-functions.sol\":798:809  uint b = 20 */\n      swap1\n      pop\n        /* \"learn-functions.sol\":820:831  uint result */\n      0x00\n        /* \"learn-functions.sol\":838:839  b */\n      dup2\n        /* \"learn-functions.sol\":834:835  a */\n      dup4\n        /* \"learn-functions.sol\":834:839  a + b */\n      tag_31\n      swap2\n      swap1\n      tag_25\n      jump\t// in\n    tag_31:\n        /* \"learn-functions.sol\":820:839  uint result = a + b */\n      swap1\n      pop\n        /* \"learn-functions.sol\":857:863  result */\n      dup1\n        /* \"learn-functions.sol\":850:863  return result */\n      swap4\n      pop\n      pop\n      pop\n      pop\n        /* \"learn-functions.sol\":709:871  function addNewValues() public pure returns (uint)\r... */\n      swap1\n      jump\t// out\n        /* \"#utility.yul\":7:140   */\n    tag_33:\n        /* \"#utility.yul\":50:55   */\n      0x00\n        /* \"#utility.yul\":88:94   */\n      dup2\n        /* \"#utility.yul\":75:95   */\n      calldataload\n        /* \"#utility.yul\":66:95   */\n      swap1\n      pop\n        /* \"#utility.yul\":104:134   */\n      tag_35\n        /* \"#utility.yul\":128:133   */\n      dup2\n        /* \"#utility.yul\":104:134   */\n      tag_36\n      jump\t// in\n    tag_35:\n        /* \"#utility.yul\":7:140   */\n      swap3\n      swap2\n      pop\n      pop\n      jump\t// out\n        /* \"#utility.yul\":146:469   */\n    tag_13:\n        /* \"#utility.yul\":202:208   */\n      0x00\n        /* \"#utility.yul\":251:253   */\n      0x20\n        /* \"#utility.yul\":239:248   */\n      dup3\n        /* \"#utility.yul\":230:237   */\n      dup5\n        /* \"#utility.yul\":226:249   */\n      sub\n        /* \"#utility.yul\":222:254   */\n      slt\n        /* \"#utility.yul\":219:338   */\n      iszero\n      tag_38\n      jumpi\n        /* \"#utility.yul\":257:336   */\n      tag_39\n      tag_40\n      jump\t// in\n    tag_39:\n        /* \"#utility.yul\":219:338   */\n    tag_38:\n        /* \"#utility.yul\":377:378   */\n      0x00\n        /* \"#utility.yul\":402:452   */\n      tag_41\n        /* \"#utility.yul\":444:451   */\n      dup5\n        /* \"#utility.yul\":435:441   */\n      dup3\n        /* \"#utility.yul\":424:433   */\n      dup6\n        /* \"#utility.yul\":420:442   */\n      add\n        /* \"#utility.yul\":402:452   */\n      tag_33\n      jump\t// in\n    tag_41:\n        /* \"#utility.yul\":392:452   */\n      swap2\n      pop\n        /* \"#utility.yul\":348:462   */\n      pop\n        /* \"#utility.yul\":146:469   */\n      swap3\n      swap2\n      pop\n      pop\n      jump\t// out\n        /* \"#utility.yul\":475:584   */\n    tag_42:\n        /* \"#utility.yul\":556:577   */\n      tag_44\n        /* \"#utility.yul\":571:576   */\n      dup2\n        /* \"#utility.yul\":556:577   */\n      tag_45\n      jump\t// in\n    tag_44:\n        /* \"#utility.yul\":551:554   */\n      dup3\n        /* \"#utility.yul\":544:578   */\n      mstore\n        /* \"#utility.yul\":475:584   */\n      pop\n      pop\n      jump\t// out\n        /* \"#utility.yul\":590:708   */\n    tag_46:\n        /* \"#utility.yul\":677:701   */\n      tag_48\n        /* \"#utility.yul\":695:700   */\n      dup2\n        /* \"#utility.yul\":677:701   */\n      tag_49\n      jump\t// in\n    tag_48:\n        /* \"#utility.yul\":672:675   */\n      dup3\n        /* \"#utility.yul\":665:702   */\n      mstore\n        /* \"#utility.yul\":590:708   */\n      pop\n      pop\n      jump\t// out\n        /* \"#utility.yul\":714:924   */\n    tag_16:\n        /* \"#utility.yul\":801:805   */\n      0x00\n        /* \"#utility.yul\":839:841   */\n      0x20\n        /* \"#utility.yul\":828:837   */\n      dup3\n        /* \"#utility.yul\":824:842   */\n      add\n        /* \"#utility.yul\":816:842   */\n      swap1\n      pop\n        /* \"#utility.yul\":852:917   */\n      tag_51\n        /* \"#utility.yul\":914:915   */\n      0x00\n        /* \"#utility.yul\":903:912   */\n      dup4\n        /* \"#utility.yul\":899:916   */\n      add\n        /* \"#utility.yul\":890:896   */\n      dup5\n        /* \"#utility.yul\":852:917   */\n      tag_42\n      jump\t// in\n    tag_51:\n        /* \"#utility.yul\":714:924   */\n      swap3\n      swap2\n      pop\n      pop\n      jump\t// out\n        /* \"#utility.yul\":930:1152   */\n    tag_10:\n        /* \"#utility.yul\":1023:1027   */\n      0x00\n        /* \"#utility.yul\":1061:1063   */\n      0x20\n        /* \"#utility.yul\":1050:1059   */\n      dup3\n        /* \"#utility.yul\":1046:1064   */\n      add\n        /* \"#utility.yul\":1038:1064   */\n      swap1\n      pop\n        /* \"#utility.yul\":1074:1145   */\n      tag_53\n        /* \"#utility.yul\":1142:1143   */\n      0x00\n        /* \"#utility.yul\":1131:1140   */\n      dup4\n        /* \"#utility.yul\":1127:1144   */\n      add\n        /* \"#utility.yul\":1118:1124   */\n      dup5\n        /* \"#utility.yul\":1074:1145   */\n      tag_46\n      jump\t// in\n    tag_53:\n        /* \"#utility.yul\":930:1152   */\n      swap3\n      swap2\n      pop\n      pop\n      jump\t// out\n        /* \"#utility.yul\":1239:1544   */\n    tag_25:\n        /* \"#utility.yul\":1279:1282   */\n      0x00\n        /* \"#utility.yul\":1298:1318   */\n      tag_57\n        /* \"#utility.yul\":1316:1317   */\n      dup3\n        /* \"#utility.yul\":1298:1318   */\n      tag_49\n      jump\t// in\n    tag_57:\n        /* \"#utility.yul\":1293:1318   */\n      swap2\n      pop\n        /* \"#utility.yul\":1332:1352   */\n      tag_58\n        /* \"#utility.yul\":1350:1351   */\n      dup4\n        /* \"#utility.yul\":1332:1352   */\n      tag_49\n      jump\t// in\n    tag_58:\n        /* \"#utility.yul\":1327:1352   */\n      swap3\n      pop\n        /* \"#utility.yul\":1486:1487   */\n      dup3\n        /* \"#utility.yul\":1418:1484   */\n      0xffffffffffffffffffffffffffffffffffffffffffffffffffffffffffffffff\n        /* \"#utility.yul\":1414:1488   */\n      sub\n        /* \"#utility.yul\":1411:1412   */\n      dup3\n        /* \"#utility.yul\":1408:1489   */\n      gt\n        /* \"#utility.yul\":1405:1512   */\n      iszero\n      tag_59\n      jumpi\n        /* \"#utility.yul\":1492:1510   */\n      tag_60\n      tag_61\n      jump\t// in\n    tag_60:\n        /* \"#utility.yul\":1405:1512   */\n    tag_59:\n        /* \"#utility.yul\":1536:1537   */\n      dup3\n        /* \"#utility.yul\":1533:1534   */\n      dup3\n        /* \"#utility.yul\":1529:1538   */\n      add\n        /* \"#utility.yul\":1522:1538   */\n      swap1\n      pop\n        /* \"#utility.yul\":1239:1544   */\n      swap3\n      swap2\n      pop\n      pop\n      jump\t// out\n        /* \"#utility.yul\":1550:1898   */\n    tag_29:\n        /* \"#utility.yul\":1590:1597   */\n      0x00\n        /* \"#utility.yul\":1613:1633   */\n      tag_63\n        /* \"#utility.yul\":1631:1632   */\n      dup3\n        /* \"#utility.yul\":1613:1633   */\n      tag_49\n      jump\t// in\n    tag_63:\n        /* \"#utility.yul\":1608:1633   */\n      swap2\n      pop\n        /* \"#utility.yul\":1647:1667   */\n      tag_64\n        /* \"#utility.yul\":1665:1666   */\n      dup4\n        /* \"#utility.yul\":1647:1667   */\n      tag_49\n      jump\t// in\n    tag_64:\n        /* \"#utility.yul\":1642:1667   */\n      swap3\n      pop\n        /* \"#utility.yul\":1835:1836   */\n      dup2\n        /* \"#utility.yul\":1767:1833   */\n      0xffffffffffffffffffffffffffffffffffffffffffffffffffffffffffffffff\n        /* \"#utility.yul\":1763:1837   */\n      div\n        /* \"#utility.yul\":1760:1761   */\n      dup4\n        /* \"#utility.yul\":1757:1838   */\n      gt\n        /* \"#utility.yul\":1752:1753   */\n      dup3\n        /* \"#utility.yul\":1745:1754   */\n      iszero\n        /* \"#utility.yul\":1738:1755   */\n      iszero\n        /* \"#utility.yul\":1734:1839   */\n      and\n        /* \"#utility.yul\":1731:1862   */\n      iszero\n      tag_65\n      jumpi\n        /* \"#utility.yul\":1842:1860   */\n      tag_66\n      tag_61\n      jump\t// in\n    tag_66:\n        /* \"#utility.yul\":1731:1862   */\n    tag_65:\n        /* \"#utility.yul\":1890:1891   */\n      dup3\n        /* \"#utility.yul\":1887:1888   */\n      dup3\n        /* \"#utility.yul\":1883:1892   */\n      mul\n        /* \"#utility.yul\":1872:1892   */\n      swap1\n      pop\n        /* \"#utility.yul\":1550:1898   */\n      swap3\n      swap2\n      pop\n      pop\n      jump\t// out\n        /* \"#utility.yul\":1904:1994   */\n    tag_45:\n        /* \"#utility.yul\":1938:1945   */\n      0x00\n        /* \"#utility.yul\":1981:1986   */\n      dup2\n        /* \"#utility.yul\":1974:1987   */\n      iszero\n        /* \"#utility.yul\":1967:1988   */\n      iszero\n        /* \"#utility.yul\":1956:1988   */\n      swap1\n      pop\n        /* \"#utility.yul\":1904:1994   */\n      swap2\n      swap1\n      pop\n      jump\t// out\n        /* \"#utility.yul\":2000:2077   */\n    tag_49:\n        /* \"#utility.yul\":2037:2044   */\n      0x00\n        /* \"#utility.yul\":2066:2071   */\n      dup2\n        /* \"#utility.yul\":2055:2071   */\n      swap1\n      pop\n        /* \"#utility.yul\":2000:2077   */\n      swap2\n      swap1\n      pop\n      jump\t// out\n        /* \"#utility.yul\":2083:2263   */\n    tag_61:\n        /* \"#utility.yul\":2131:2208   */\n      0x4e487b7100000000000000000000000000000000000000000000000000000000\n        /* \"#utility.yul\":2128:2129   */\n      0x00\n        /* \"#utility.yul\":2121:2209   */\n      mstore\n        /* \"#utility.yul\":2228:2232   */\n      0x11\n        /* \"#utility.yul\":2225:2226   */\n      0x04\n        /* \"#utility.yul\":2218:2233   */\n      mstore\n        /* \"#utility.yul\":2252:2256   */\n      0x24\n        /* \"#utility.yul\":2249:2250   */\n      0x00\n        /* \"#utility.yul\":2242:2257   */\n      revert\n        /* \"#utility.yul\":2392:2509   */\n    tag_40:\n        /* \"#utility.yul\":2501:2502   */\n      0x00\n        /* \"#utility.yul\":2498:2499   */\n      dup1\n        /* \"#utility.yul\":2491:2503   */\n      revert\n        /* \"#utility.yul\":2515:2631   */\n    tag_36:\n        /* \"#utility.yul\":2585:2606   */\n      tag_74\n        /* \"#utility.yul\":2600:2605   */\n      dup2\n        /* \"#utility.yul\":2585:2606   */\n      tag_45\n      jump\t// in\n    tag_74:\n        /* \"#utility.yul\":2578:2583   */\n      dup2\n        /* \"#utility.yul\":2575:2607   */\n      eq\n        /* \"#utility.yul\":2565:2625   */\n      tag_75\n      jumpi\n        /* \"#utility.yul\":2621:2622   */\n      0x00\n        /* \"#utility.yul\":2618:2619   */\n      dup1\n        /* \"#utility.yul\":2611:2623   */\n      revert\n        /* \"#utility.yul\":2565:2625   */\n    tag_75:\n        /* \"#utility.yul\":2515:2631   */\n      pop\n      jump\t// out\n\n    auxdata: 0xa2646970667358221220c8005390fe3a1b369c3d37aef6e7170529d9b49710c971f0cbc1be4ec0d96d7764736f6c63430008070033\n}\n",
				"bytecode": {
					"linkReferences": {},
					"object": "608060405234801561001057600080fd5b50610331806100206000396000f3fe608060405234801561001057600080fd5b506004361061004c5760003560e01c8063166e7bdd14610051578063273d1a3e1461006f578063400bd1721461009f578063e581bdca146100bd575b600080fd5b6100596100db565b60405161006691906101cf565b60405180910390f35b61008960048036038101906100849190610169565b610101565b60405161009691906101b4565b60405180910390f35b6100a7610108565b6040516100b491906101cf565b60405180910390f35b6100c561012e565b6040516100d291906101cf565b60405180910390f35b600080600a9050600060059050600081836100f691906101ea565b905080935050505090565b6000919050565b600080600e90506000600c9050600081836101239190610240565b905080935050505090565b600080600f90506000601490506000818361014991906101ea565b905080935050505090565b600081359050610163816102e4565b92915050565b60006020828403121561017f5761017e6102df565b5b600061018d84828501610154565b91505092915050565b61019f8161029a565b82525050565b6101ae816102a6565b82525050565b60006020820190506101c96000830184610196565b92915050565b60006020820190506101e460008301846101a5565b92915050565b60006101f5826102a6565b9150610200836102a6565b9250827fffffffffffffffffffffffffffffffffffffffffffffffffffffffffffffffff03821115610235576102346102b0565b5b828201905092915050565b600061024b826102a6565b9150610256836102a6565b9250817fffffffffffffffffffffffffffffffffffffffffffffffffffffffffffffffff048311821515161561028f5761028e6102b0565b5b828202905092915050565b60008115159050919050565b6000819050919050565b7f4e487b7100000000000000000000000000000000000000000000000000000000600052601160045260246000fd5b600080fd5b6102ed8161029a565b81146102f857600080fd5b5056fea2646970667358221220c8005390fe3a1b369c3d37aef6e7170529d9b49710c971f0cbc1be4ec0d96d7764736f6c63430008070033",
					"opcodes": "PUSH1 0x80 PUSH1 0x40 MSTORE CALLVALUE DUP1 ISZERO PUSH2 0x10 JUMPI PUSH1 0x0 DUP1 REVERT JUMPDEST POP PUSH2 0x331 DUP1 PUSH2 0x20 PUSH1 0x0 CODECOPY PUSH1 0x0 RETURN INVALID PUSH1 0x80 PUSH1 0x40 MSTORE CALLVALUE DUP1 ISZERO PUSH2 0x10 JUMPI PUSH1 0x0 DUP1 REVERT JUMPDEST POP PUSH1 0x4 CALLDATASIZE LT PUSH2 0x4C JUMPI PUSH1 0x0 CALLDATALOAD PUSH1 0xE0 SHR DUP1 PUSH4 0x166E7BDD EQ PUSH2 0x51 JUMPI DUP1 PUSH4 0x273D1A3E EQ PUSH2 0x6F JUMPI DUP1 PUSH4 0x400BD172 EQ PUSH2 0x9F JUMPI DUP1 PUSH4 0xE581BDCA EQ PUSH2 0xBD JUMPI JUMPDEST PUSH1 0x0 DUP1 REVERT JUMPDEST PUSH2 0x59 PUSH2 0xDB JUMP JUMPDEST PUSH1 0x40 MLOAD PUSH2 0x66 SWAP2 SWAP1 PUSH2 0x1CF JUMP JUMPDEST PUSH1 0x40 MLOAD DUP1 SWAP2 SUB SWAP1 RETURN JUMPDEST PUSH2 0x89 PUSH1 0x4 DUP1 CALLDATASIZE SUB DUP2 ADD SWAP1 PUSH2 0x84 SWAP2 SWAP1 PUSH2 0x169 JUMP JUMPDEST PUSH2 0x101 JUMP JUMPDEST PUSH1 0x40 MLOAD PUSH2 0x96 SWAP2 SWAP1 PUSH2 0x1B4 JUMP JUMPDEST PUSH1 0x40 MLOAD DUP1 SWAP2 SUB SWAP1 RETURN JUMPDEST PUSH2 0xA7 PUSH2 0x108 JUMP JUMPDEST PUSH1 0x40 MLOAD PUSH2 0xB4 SWAP2 SWAP1 PUSH2 0x1CF JUMP JUMPDEST PUSH1 0x40 MLOAD DUP1 SWAP2 SUB SWAP1 RETURN JUMPDEST PUSH2 0xC5 PUSH2 0x12E JUMP JUMPDEST PUSH1 0x40 MLOAD PUSH2 0xD2 SWAP2 SWAP1 PUSH2 0x1CF JUMP JUMPDEST PUSH1 0x40 MLOAD DUP1 SWAP2 SUB SWAP1 RETURN JUMPDEST PUSH1 0x0 DUP1 PUSH1 0xA SWAP1 POP PUSH1 0x0 PUSH1 0x5 SWAP1 POP PUSH1 0x0 DUP2 DUP4 PUSH2 0xF6 SWAP2 SWAP1 PUSH2 0x1EA JUMP JUMPDEST SWAP1 POP DUP1 SWAP4 POP POP POP POP SWAP1 JUMP JUMPDEST PUSH1 0x0 SWAP2 SWAP1 POP JUMP JUMPDEST PUSH1 0x0 DUP1 PUSH1 0xE SWAP1 POP PUSH1 0x0 PUSH1 0xC SWAP1 POP PUSH1 0x0 DUP2 DUP4 PUSH2 0x123 SWAP2 SWAP1 PUSH2 0x240 JUMP JUMPDEST SWAP1 POP DUP1 SWAP4 POP POP POP POP SWAP1 JUMP JUMPDEST PUSH1 0x0 DUP1 PUSH1 0xF SWAP1 POP PUSH1 0x0 PUSH1 0x14 SWAP1 POP PUSH1 0x0 DUP2 DUP4 PUSH2 0x149 SWAP2 SWAP1 PUSH2 0x1EA JUMP JUMPDEST SWAP1 POP DUP1 SWAP4 POP POP POP POP SWAP1 JUMP JUMPDEST PUSH1 0x0 DUP2 CALLDATALOAD SWAP1 POP PUSH2 0x163 DUP2 PUSH2 0x2E4 JUMP JUMPDEST SWAP3 SWAP2 POP POP JUMP JUMPDEST PUSH1 0x0 PUSH1 0x20 DUP3 DUP5 SUB SLT ISZERO PUSH2 0x17F JUMPI PUSH2 0x17E PUSH2 0x2DF JUMP JUMPDEST JUMPDEST PUSH1 0x0 PUSH2 0x18D DUP5 DUP3 DUP6 ADD PUSH2 0x154 JUMP JUMPDEST SWAP2 POP POP SWAP3 SWAP2 POP POP JUMP JUMPDEST PUSH2 0x19F DUP2 PUSH2 0x29A JUMP JUMPDEST DUP3 MSTORE POP POP JUMP JUMPDEST PUSH2 0x1AE DUP2 PUSH2 0x2A6 JUMP JUMPDEST DUP3 MSTORE POP POP JUMP JUMPDEST PUSH1 0x0 PUSH1 0x20 DUP3 ADD SWAP1 POP PUSH2 0x1C9 PUSH1 0x0 DUP4 ADD DUP5 PUSH2 0x196 JUMP JUMPDEST SWAP3 SWAP2 POP POP JUMP JUMPDEST PUSH1 0x0 PUSH1 0x20 DUP3 ADD SWAP1 POP PUSH2 0x1E4 PUSH1 0x0 DUP4 ADD DUP5 PUSH2 0x1A5 JUMP JUMPDEST SWAP3 SWAP2 POP POP JUMP JUMPDEST PUSH1 0x0 PUSH2 0x1F5 DUP3 PUSH2 0x2A6 JUMP JUMPDEST SWAP2 POP PUSH2 0x200 DUP4 PUSH2 0x2A6 JUMP JUMPDEST SWAP3 POP DUP3 PUSH32 0xFFFFFFFFFFFFFFFFFFFFFFFFFFFFFFFFFFFFFFFFFFFFFFFFFFFFFFFFFFFFFFFF SUB DUP3 GT ISZERO PUSH2 0x235 JUMPI PUSH2 0x234 PUSH2 0x2B0 JUMP JUMPDEST JUMPDEST DUP3 DUP3 ADD SWAP1 POP SWAP3 SWAP2 POP POP JUMP JUMPDEST PUSH1 0x0 PUSH2 0x24B DUP3 PUSH2 0x2A6 JUMP JUMPDEST SWAP2 POP PUSH2 0x256 DUP4 PUSH2 0x2A6 JUMP JUMPDEST SWAP3 POP DUP2 PUSH32 0xFFFFFFFFFFFFFFFFFFFFFFFFFFFFFFFFFFFFFFFFFFFFFFFFFFFFFFFFFFFFFFFF DIV DUP4 GT DUP3 ISZERO ISZERO AND ISZERO PUSH2 0x28F JUMPI PUSH2 0x28E PUSH2 0x2B0 JUMP JUMPDEST JUMPDEST DUP3 DUP3 MUL SWAP1 POP SWAP3 SWAP2 POP POP JUMP JUMPDEST PUSH1 0x0 DUP2 ISZERO ISZERO SWAP1 POP SWAP2 SWAP1 POP JUMP JUMPDEST PUSH1 0x0 DUP2 SWAP1 POP SWAP2 SWAP1 POP JUMP JUMPDEST PUSH32 0x4E487B7100000000000000000000000000000000000000000000000000000000 PUSH1 0x0 MSTORE PUSH1 0x11 PUSH1 0x4 MSTORE PUSH1 0x24 PUSH1 0x0 REVERT JUMPDEST PUSH1 0x0 DUP1 REVERT JUMPDEST PUSH2 0x2ED DUP2 PUSH2 0x29A JUMP JUMPDEST DUP2 EQ PUSH2 0x2F8 JUMPI PUSH1 0x0 DUP1 REVERT JUMPDEST POP JUMP INVALID LOG2 PUSH5 0x6970667358 0x22 SLT KECCAK256 0xC8 STOP MSTORE8 SWAP1 INVALID GASPRICE SHL CALLDATASIZE SWAP13 RETURNDATASIZE CALLDATACOPY 0xAE 0xF6 0xE7 OR SDIV 0x29 0xD9 0xB4 SWAP8 LT 0xC9 PUSH18 0xF0CBC1BE4EC0D96D7764736F6C6343000807 STOP CALLER "
				},
				"gasEstimates": {
					"creation": {
						"codeDepositCost": "163400",
						"executionCost": "208",
						"totalCost": "163608"
					},
					"external": {
						"addNewValues()": "infinite",
						"addValues()": "infinite",
						"multiplyCalculator()": "infinite",
						"remoteControlOpen(bool)": "infinite"
					}
				},
				"methodIdentifiers": {
					"addNewValues()": "e581bdca",
					"addValues()": "166e7bdd",
					"multiplyCalculator()": "400bd172",
					"remoteControlOpen(bool)": "273d1a3e"
				}
			},
			"storageLayout": {
				"storage": [],
				"types": null
			},
			"userdoc": {
				"kind": "user",
				"methods": {},
				"version": 1
			}
		}
	}
}