{
	"learn-functions.sol": {
		"learnFunctions": {
			"abi": [
				{
					"inputs": [],
					"name": "addNewValues",
					"outputs": [
						{
							"internalType": "uint256",
							"name": "",
							"type": "uint256"
						}
					],
					"stateMutability": "pure",
					"type": "function"
				},
				{
					"inputs": [],
					"name": "addValues",
					"outputs": [
						{
							"internalType": "uint256",
							"name": "",
							"type": "uint256"
						}
					],
					"stateMutability": "pure",
					"type": "function"
				},
				{
					"inputs": [
						{
							"internalType": "uint256",
							"name": "a",
							"type": "uint256"
						}
					],
					"name": "divideCalculator",
					"outputs": [
						{
							"internalType": "uint256",
							"name": "",
							"type": "uint256"
						}
					],
					"stateMutability": "view",
					"type": "function"
				},
				{
					"inputs": [],
					"name": "multiplyCalculator",
					"outputs": [
						{
							"internalType": "uint256",
							"name": "",
							"type": "uint256"
						}
					],
					"stateMutability": "pure",
					"type": "function"
				},
				{
					"inputs": [
						{
							"internalType": "bool",
							"name": "closedDoor",
							"type": "bool"
						}
					],
					"name": "remoteControlOpen",
					"outputs": [
						{
							"internalType": "bool",
							"name": "",
							"type": "bool"
						}
					],
					"stateMutability": "nonpayable",
					"type": "function"
				}
			],
			"devdoc": {
				"kind": "dev",
				"methods": {},
				"version": 1
			},
			"evm": {
				"assembly": "    /* \"learn-functions.sol\":176:1216  contract learnFunctions {\r... */\n  mstore(0x40, 0x80)\n    /* \"learn-functions.sol\":1060:1062  10 */\n  0x0a\n    /* \"learn-functions.sol\":1051:1062  uint c = 10 */\n  0x00\n  sstore\n    /* \"learn-functions.sol\":1074:1075  2 */\n  0x02\n    /* \"learn-functions.sol\":1065:1075  uint d = 2 */\n  0x01\n  sstore\n    /* \"learn-functions.sol\":176:1216  contract learnFunctions {\r... */\n  callvalue\n  dup1\n  iszero\n  tag_1\n  jumpi\n  0x00\n  dup1\n  revert\ntag_1:\n  pop\n  dataSize(sub_0)\n  dup1\n  dataOffset(sub_0)\n  0x00\n  codecopy\n  0x00\n  return\nstop\n\nsub_0: assembly {\n        /* \"learn-functions.sol\":176:1216  contract learnFunctions {\r... */\n      mstore(0x40, 0x80)\n      callvalue\n      dup1\n      iszero\n      tag_1\n      jumpi\n      0x00\n      dup1\n      revert\n    tag_1:\n      pop\n      jumpi(tag_2, lt(calldatasize, 0x04))\n      shr(0xe0, calldataload(0x00))\n      dup1\n      0x166e7bdd\n      eq\n      tag_3\n      jumpi\n      dup1\n      0x273d1a3e\n      eq\n      tag_4\n      jumpi\n      dup1\n      0x400bd172\n      eq\n      tag_5\n      jumpi\n      dup1\n      0x5da0e693\n      eq\n      tag_6\n      jumpi\n      dup1\n      0xe581bdca\n      eq\n      tag_7\n      jumpi\n    tag_2:\n      0x00\n      dup1\n      revert\n        /* \"learn-functions.sol\":517:701  function addValues() public pure returns(uint) \r... */\n    tag_3:\n      tag_8\n      tag_9\n      jump\t// in\n    tag_8:\n      mload(0x40)\n      tag_10\n      swap2\n      swap1\n      tag_11\n      jump\t// in\n    tag_10:\n      mload(0x40)\n      dup1\n      swap2\n      sub\n      swap1\n      return\n        /* \"learn-functions.sol\":388:509  function remoteControlOpen(bool closedDoor ) public returns(bool)\r... */\n    tag_4:\n      tag_12\n      0x04\n      dup1\n      calldatasize\n      sub\n      dup2\n      add\n      swap1\n      tag_13\n      swap2\n      swap1\n      tag_14\n      jump\t// in\n    tag_13:\n      tag_15\n      jump\t// in\n    tag_12:\n      mload(0x40)\n      tag_16\n      swap2\n      swap1\n      tag_17\n      jump\t// in\n    tag_16:\n      mload(0x40)\n      dup1\n      swap2\n      sub\n      swap1\n      return\n        /* \"learn-functions.sol\":880:1047  function multiplyCalculator() public pure returns(uint)\r... */\n    tag_5:\n      tag_18\n      tag_19\n      jump\t// in\n    tag_18:\n      mload(0x40)\n      tag_20\n      swap2\n      swap1\n      tag_11\n      jump\t// in\n    tag_20:\n      mload(0x40)\n      dup1\n      swap2\n      sub\n      swap1\n      return\n        /* \"learn-functions.sol\":1082:1211  function divideCalculator(uint a) public view returns(uint)\r... */\n    tag_6:\n      tag_21\n      0x04\n      dup1\n      calldatasize\n      sub\n      dup2\n      add\n      swap1\n      tag_22\n      swap2\n      swap1\n      tag_23\n      jump\t// in\n    tag_22:\n      tag_24\n      jump\t// in\n    tag_21:\n      mload(0x40)\n      tag_25\n      swap2\n      swap1\n      tag_11\n      jump\t// in\n    tag_25:\n      mload(0x40)\n      dup1\n      swap2\n      sub\n      swap1\n      return\n        /* \"learn-functions.sol\":709:871  function addNewValues() public pure returns (uint)\r... */\n    tag_7:\n      tag_26\n      tag_27\n      jump\t// in\n    tag_26:\n      mload(0x40)\n      tag_28\n      swap2\n      swap1\n      tag_11\n      jump\t// in\n    tag_28:\n      mload(0x40)\n      dup1\n      swap2\n      sub\n      swap1\n      return\n        /* \"learn-functions.sol\":517:701  function addValues() public pure returns(uint) \r... */\n    tag_9:\n        /* \"learn-functions.sol\":558:562  uint */\n      0x00\n        /* \"learn-functions.sol\":581:587  uint a */\n      dup1\n        /* \"learn-functions.sol\":590:592  10 */\n      0x0a\n        /* \"learn-functions.sol\":581:592  uint a = 10 */\n      swap1\n      pop\n        /* \"learn-functions.sol\":629:635  uint b */\n      0x00\n        /* \"learn-functions.sol\":638:639  5 */\n      0x05\n        /* \"learn-functions.sol\":629:639  uint b = 5 */\n      swap1\n      pop\n        /* \"learn-functions.sol\":650:661  uint result */\n      0x00\n        /* \"learn-functions.sol\":668:669  b */\n      dup2\n        /* \"learn-functions.sol\":664:665  a */\n      dup4\n        /* \"learn-functions.sol\":664:669  a + b */\n      tag_30\n      swap2\n      swap1\n      tag_31\n      jump\t// in\n    tag_30:\n        /* \"learn-functions.sol\":650:669  uint result = a + b */\n      swap1\n      pop\n        /* \"learn-functions.sol\":687:693  result */\n      dup1\n        /* \"learn-functions.sol\":680:693  return result */\n      swap4\n      pop\n      pop\n      pop\n      pop\n        /* \"learn-functions.sol\":517:701  function addValues() public pure returns(uint) \r... */\n      swap1\n      jump\t// out\n        /* \"learn-functions.sol\":388:509  function remoteControlOpen(bool closedDoor ) public returns(bool)\r... */\n    tag_15:\n        /* \"learn-functions.sol\":448:452  bool */\n      0x00\n        /* \"learn-functions.sol\":388:509  function remoteControlOpen(bool closedDoor ) public returns(bool)\r... */\n      swap2\n      swap1\n      pop\n      jump\t// out\n        /* \"learn-functions.sol\":880:1047  function multiplyCalculator() public pure returns(uint)\r... */\n    tag_19:\n        /* \"learn-functions.sol\":930:934  uint */\n      0x00\n        /* \"learn-functions.sol\":952:958  uint a */\n      dup1\n        /* \"learn-functions.sol\":961:963  14 */\n      0x0e\n        /* \"learn-functions.sol\":952:963  uint a = 14 */\n      swap1\n      pop\n        /* \"learn-functions.sol\":974:980  uint b */\n      0x00\n        /* \"learn-functions.sol\":983:985  12 */\n      0x0c\n        /* \"learn-functions.sol\":974:985  uint b = 12 */\n      swap1\n      pop\n        /* \"learn-functions.sol\":996:1007  uint result */\n      0x00\n        /* \"learn-functions.sol\":1014:1015  b */\n      dup2\n        /* \"learn-functions.sol\":1010:1011  a */\n      dup4\n        /* \"learn-functions.sol\":1010:1015  a * b */\n      tag_34\n      swap2\n      swap1\n      tag_35\n      jump\t// in\n    tag_34:\n        /* \"learn-functions.sol\":996:1015  uint result = a * b */\n      swap1\n      pop\n        /* \"learn-functions.sol\":1033:1039  result */\n      dup1\n        /* \"learn-functions.sol\":1026:1039  return result */\n      swap4\n      pop\n      pop\n      pop\n      pop\n        /* \"learn-functions.sol\":880:1047  function multiplyCalculator() public pure returns(uint)\r... */\n      swap1\n      jump\t// out\n        /* \"learn-functions.sol\":1082:1211  function divideCalculator(uint a) public view returns(uint)\r... */\n    tag_24:\n        /* \"learn-functions.sol\":1136:1140  uint */\n      0x00\n        /* \"learn-functions.sol\":1160:1171  uint result */\n      dup1\n        /* \"learn-functions.sol\":1178:1179  d */\n      sload(0x01)\n        /* \"learn-functions.sol\":1174:1175  c */\n      sload(0x00)\n        /* \"learn-functions.sol\":1174:1179  c / d */\n      tag_37\n      swap2\n      swap1\n      tag_38\n      jump\t// in\n    tag_37:\n        /* \"learn-functions.sol\":1160:1179  uint result = c / d */\n      swap1\n      pop\n        /* \"learn-functions.sol\":1197:1203  result */\n      dup1\n        /* \"learn-functions.sol\":1190:1203  return result */\n      swap2\n      pop\n      pop\n        /* \"learn-functions.sol\":1082:1211  function divideCalculator(uint a) public view returns(uint)\r... */\n      swap2\n      swap1\n      pop\n      jump\t// out\n        /* \"learn-functions.sol\":709:871  function addNewValues() public pure returns (uint)\r... */\n    tag_27:\n        /* \"learn-functions.sol\":754:758  uint */\n      0x00\n        /* \"learn-functions.sol\":776:782  uint a */\n      dup1\n        /* \"learn-functions.sol\":785:787  15 */\n      0x0f\n        /* \"learn-functions.sol\":776:787  uint a = 15 */\n      swap1\n      pop\n        /* \"learn-functions.sol\":798:804  uint b */\n      0x00\n        /* \"learn-functions.sol\":807:809  20 */\n      0x14\n        /* \"learn-functions.sol\":798:809  uint b = 20 */\n      swap1\n      pop\n        /* \"learn-functions.sol\":820:831  uint result */\n      0x00\n        /* \"learn-functions.sol\":838:839  b */\n      dup2\n        /* \"learn-functions.sol\":834:835  a */\n      dup4\n        /* \"learn-functions.sol\":834:839  a + b */\n      tag_40\n      swap2\n      swap1\n      tag_31\n      jump\t// in\n    tag_40:\n        /* \"learn-functions.sol\":820:839  uint result = a + b */\n      swap1\n      pop\n        /* \"learn-functions.sol\":857:863  result */\n      dup1\n        /* \"learn-functions.sol\":850:863  return result */\n      swap4\n      pop\n      pop\n      pop\n      pop\n        /* \"learn-functions.sol\":709:871  function addNewValues() public pure returns (uint)\r... */\n      swap1\n      jump\t// out\n        /* \"#utility.yul\":7:140   */\n    tag_42:\n        /* \"#utility.yul\":50:55   */\n      0x00\n        /* \"#utility.yul\":88:94   */\n      dup2\n        /* \"#utility.yul\":75:95   */\n      calldataload\n        /* \"#utility.yul\":66:95   */\n      swap1\n      pop\n        /* \"#utility.yul\":104:134   */\n      tag_44\n        /* \"#utility.yul\":128:133   */\n      dup2\n        /* \"#utility.yul\":104:134   */\n      tag_45\n      jump\t// in\n    tag_44:\n        /* \"#utility.yul\":7:140   */\n      swap3\n      swap2\n      pop\n      pop\n      jump\t// out\n        /* \"#utility.yul\":146:285   */\n    tag_46:\n        /* \"#utility.yul\":192:197   */\n      0x00\n        /* \"#utility.yul\":230:236   */\n      dup2\n        /* \"#utility.yul\":217:237   */\n      calldataload\n        /* \"#utility.yul\":208:237   */\n      swap1\n      pop\n        /* \"#utility.yul\":246:279   */\n      tag_48\n        /* \"#utility.yul\":273:278   */\n      dup2\n        /* \"#utility.yul\":246:279   */\n      tag_49\n      jump\t// in\n    tag_48:\n        /* \"#utility.yul\":146:285   */\n      swap3\n      swap2\n      pop\n      pop\n      jump\t// out\n        /* \"#utility.yul\":291:614   */\n    tag_14:\n        /* \"#utility.yul\":347:353   */\n      0x00\n        /* \"#utility.yul\":396:398   */\n      0x20\n        /* \"#utility.yul\":384:393   */\n      dup3\n        /* \"#utility.yul\":375:382   */\n      dup5\n        /* \"#utility.yul\":371:394   */\n      sub\n        /* \"#utility.yul\":367:399   */\n      slt\n        /* \"#utility.yul\":364:483   */\n      iszero\n      tag_51\n      jumpi\n        /* \"#utility.yul\":402:481   */\n      tag_52\n      tag_53\n      jump\t// in\n    tag_52:\n        /* \"#utility.yul\":364:483   */\n    tag_51:\n        /* \"#utility.yul\":522:523   */\n      0x00\n        /* \"#utility.yul\":547:597   */\n      tag_54\n        /* \"#utility.yul\":589:596   */\n      dup5\n        /* \"#utility.yul\":580:586   */\n      dup3\n        /* \"#utility.yul\":569:578   */\n      dup6\n        /* \"#utility.yul\":565:587   */\n      add\n        /* \"#utility.yul\":547:597   */\n      tag_42\n      jump\t// in\n    tag_54:\n        /* \"#utility.yul\":537:597   */\n      swap2\n      pop\n        /* \"#utility.yul\":493:607   */\n      pop\n        /* \"#utility.yul\":291:614   */\n      swap3\n      swap2\n      pop\n      pop\n      jump\t// out\n        /* \"#utility.yul\":620:949   */\n    tag_23:\n        /* \"#utility.yul\":679:685   */\n      0x00\n        /* \"#utility.yul\":728:730   */\n      0x20\n        /* \"#utility.yul\":716:725   */\n      dup3\n        /* \"#utility.yul\":707:714   */\n      dup5\n        /* \"#utility.yul\":703:726   */\n      sub\n        /* \"#utility.yul\":699:731   */\n      slt\n        /* \"#utility.yul\":696:815   */\n      iszero\n      tag_56\n      jumpi\n        /* \"#utility.yul\":734:813   */\n      tag_57\n      tag_53\n      jump\t// in\n    tag_57:\n        /* \"#utility.yul\":696:815   */\n    tag_56:\n        /* \"#utility.yul\":854:855   */\n      0x00\n        /* \"#utility.yul\":879:932   */\n      tag_58\n        /* \"#utility.yul\":924:931   */\n      dup5\n        /* \"#utility.yul\":915:921   */\n      dup3\n        /* \"#utility.yul\":904:913   */\n      dup6\n        /* \"#utility.yul\":900:922   */\n      add\n        /* \"#utility.yul\":879:932   */\n      tag_46\n      jump\t// in\n    tag_58:\n        /* \"#utility.yul\":869:932   */\n      swap2\n      pop\n        /* \"#utility.yul\":825:942   */\n      pop\n        /* \"#utility.yul\":620:949   */\n      swap3\n      swap2\n      pop\n      pop\n      jump\t// out\n        /* \"#utility.yul\":955:1064   */\n    tag_59:\n        /* \"#utility.yul\":1036:1057   */\n      tag_61\n        /* \"#utility.yul\":1051:1056   */\n      dup2\n        /* \"#utility.yul\":1036:1057   */\n      tag_62\n      jump\t// in\n    tag_61:\n        /* \"#utility.yul\":1031:1034   */\n      dup3\n        /* \"#utility.yul\":1024:1058   */\n      mstore\n        /* \"#utility.yul\":955:1064   */\n      pop\n      pop\n      jump\t// out\n        /* \"#utility.yul\":1070:1188   */\n    tag_63:\n        /* \"#utility.yul\":1157:1181   */\n      tag_65\n        /* \"#utility.yul\":1175:1180   */\n      dup2\n        /* \"#utility.yul\":1157:1181   */\n      tag_66\n      jump\t// in\n    tag_65:\n        /* \"#utility.yul\":1152:1155   */\n      dup3\n        /* \"#utility.yul\":1145:1182   */\n      mstore\n        /* \"#utility.yul\":1070:1188   */\n      pop\n      pop\n      jump\t// out\n        /* \"#utility.yul\":1194:1404   */\n    tag_17:\n        /* \"#utility.yul\":1281:1285   */\n      0x00\n        /* \"#utility.yul\":1319:1321   */\n      0x20\n        /* \"#utility.yul\":1308:1317   */\n      dup3\n        /* \"#utility.yul\":1304:1322   */\n      add\n        /* \"#utility.yul\":1296:1322   */\n      swap1\n      pop\n        /* \"#utility.yul\":1332:1397   */\n      tag_68\n        /* \"#utility.yul\":1394:1395   */\n      0x00\n        /* \"#utility.yul\":1383:1392   */\n      dup4\n        /* \"#utility.yul\":1379:1396   */\n      add\n        /* \"#utility.yul\":1370:1376   */\n      dup5\n        /* \"#utility.yul\":1332:1397   */\n      tag_59\n      jump\t// in\n    tag_68:\n        /* \"#utility.yul\":1194:1404   */\n      swap3\n      swap2\n      pop\n      pop\n      jump\t// out\n        /* \"#utility.yul\":1410:1632   */\n    tag_11:\n        /* \"#utility.yul\":1503:1507   */\n      0x00\n        /* \"#utility.yul\":1541:1543   */\n      0x20\n        /* \"#utility.yul\":1530:1539   */\n      dup3\n        /* \"#utility.yul\":1526:1544   */\n      add\n        /* \"#utility.yul\":1518:1544   */\n      swap1\n      pop\n        /* \"#utility.yul\":1554:1625   */\n      tag_70\n        /* \"#utility.yul\":1622:1623   */\n      0x00\n        /* \"#utility.yul\":1611:1620   */\n      dup4\n        /* \"#utility.yul\":1607:1624   */\n      add\n        /* \"#utility.yul\":1598:1604   */\n      dup5\n        /* \"#utility.yul\":1554:1625   */\n      tag_63\n      jump\t// in\n    tag_70:\n        /* \"#utility.yul\":1410:1632   */\n      swap3\n      swap2\n      pop\n      pop\n      jump\t// out\n        /* \"#utility.yul\":1719:2024   */\n    tag_31:\n        /* \"#utility.yul\":1759:1762   */\n      0x00\n        /* \"#utility.yul\":1778:1798   */\n      tag_74\n        /* \"#utility.yul\":1796:1797   */\n      dup3\n        /* \"#utility.yul\":1778:1798   */\n      tag_66\n      jump\t// in\n    tag_74:\n        /* \"#utility.yul\":1773:1798   */\n      swap2\n      pop\n        /* \"#utility.yul\":1812:1832   */\n      tag_75\n        /* \"#utility.yul\":1830:1831   */\n      dup4\n        /* \"#utility.yul\":1812:1832   */\n      tag_66\n      jump\t// in\n    tag_75:\n        /* \"#utility.yul\":1807:1832   */\n      swap3\n      pop\n        /* \"#utility.yul\":1966:1967   */\n      dup3\n        /* \"#utility.yul\":1898:1964   */\n      0xffffffffffffffffffffffffffffffffffffffffffffffffffffffffffffffff\n        /* \"#utility.yul\":1894:1968   */\n      sub\n        /* \"#utility.yul\":1891:1892   */\n      dup3\n        /* \"#utility.yul\":1888:1969   */\n      gt\n        /* \"#utility.yul\":1885:1992   */\n      iszero\n      tag_76\n      jumpi\n        /* \"#utility.yul\":1972:1990   */\n      tag_77\n      tag_78\n      jump\t// in\n    tag_77:\n        /* \"#utility.yul\":1885:1992   */\n    tag_76:\n        /* \"#utility.yul\":2016:2017   */\n      dup3\n        /* \"#utility.yul\":2013:2014   */\n      dup3\n        /* \"#utility.yul\":2009:2018   */\n      add\n        /* \"#utility.yul\":2002:2018   */\n      swap1\n      pop\n        /* \"#utility.yul\":1719:2024   */\n      swap3\n      swap2\n      pop\n      pop\n      jump\t// out\n        /* \"#utility.yul\":2030:2215   */\n    tag_38:\n        /* \"#utility.yul\":2070:2071   */\n      0x00\n        /* \"#utility.yul\":2087:2107   */\n      tag_80\n        /* \"#utility.yul\":2105:2106   */\n      dup3\n        /* \"#utility.yul\":2087:2107   */\n      tag_66\n      jump\t// in\n    tag_80:\n        /* \"#utility.yul\":2082:2107   */\n      swap2\n      pop\n        /* \"#utility.yul\":2121:2141   */\n      tag_81\n        /* \"#utility.yul\":2139:2140   */\n      dup4\n        /* \"#utility.yul\":2121:2141   */\n      tag_66\n      jump\t// in\n    tag_81:\n        /* \"#utility.yul\":2116:2141   */\n      swap3\n      pop\n        /* \"#utility.yul\":2160:2161   */\n      dup3\n        /* \"#utility.yul\":2150:2185   */\n      tag_82\n      jumpi\n        /* \"#utility.yul\":2165:2183   */\n      tag_83\n      tag_84\n      jump\t// in\n    tag_83:\n        /* \"#utility.yul\":2150:2185   */\n    tag_82:\n        /* \"#utility.yul\":2207:2208   */\n      dup3\n        /* \"#utility.yul\":2204:2205   */\n      dup3\n        /* \"#utility.yul\":2200:2209   */\n      div\n        /* \"#utility.yul\":2195:2209   */\n      swap1\n      pop\n        /* \"#utility.yul\":2030:2215   */\n      swap3\n      swap2\n      pop\n      pop\n      jump\t// out\n        /* \"#utility.yul\":2221:2569   */\n    tag_35:\n        /* \"#utility.yul\":2261:2268   */\n      0x00\n        /* \"#utility.yul\":2284:2304   */\n      tag_86\n        /* \"#utility.yul\":2302:2303   */\n      dup3\n        /* \"#utility.yul\":2284:2304   */\n      tag_66\n      jump\t// in\n    tag_86:\n        /* \"#utility.yul\":2279:2304   */\n      swap2\n      pop\n        /* \"#utility.yul\":2318:2338   */\n      tag_87\n        /* \"#utility.yul\":2336:2337   */\n      dup4\n        /* \"#utility.yul\":2318:2338   */\n      tag_66\n      jump\t// in\n    tag_87:\n        /* \"#utility.yul\":2313:2338   */\n      swap3\n      pop\n        /* \"#utility.yul\":2506:2507   */\n      dup2\n        /* \"#utility.yul\":2438:2504   */\n      0xffffffffffffffffffffffffffffffffffffffffffffffffffffffffffffffff\n        /* \"#utility.yul\":2434:2508   */\n      div\n        /* \"#utility.yul\":2431:2432   */\n      dup4\n        /* \"#utility.yul\":2428:2509   */\n      gt\n        /* \"#utility.yul\":2423:2424   */\n      dup3\n        /* \"#utility.yul\":2416:2425   */\n      iszero\n        /* \"#utility.yul\":2409:2426   */\n      iszero\n        /* \"#utility.yul\":2405:2510   */\n      and\n        /* \"#utility.yul\":2402:2533   */\n      iszero\n      tag_88\n      jumpi\n        /* \"#utility.yul\":2513:2531   */\n      tag_89\n      tag_78\n      jump\t// in\n    tag_89:\n        /* \"#utility.yul\":2402:2533   */\n    tag_88:\n        /* \"#utility.yul\":2561:2562   */\n      dup3\n        /* \"#utility.yul\":2558:2559   */\n      dup3\n        /* \"#utility.yul\":2554:2563   */\n      mul\n        /* \"#utility.yul\":2543:2563   */\n      swap1\n      pop\n        /* \"#utility.yul\":2221:2569   */\n      swap3\n      swap2\n      pop\n      pop\n      jump\t// out\n        /* \"#utility.yul\":2575:2665   */\n    tag_62:\n        /* \"#utility.yul\":2609:2616   */\n      0x00\n        /* \"#utility.yul\":2652:2657   */\n      dup2\n        /* \"#utility.yul\":2645:2658   */\n      iszero\n        /* \"#utility.yul\":2638:2659   */\n      iszero\n        /* \"#utility.yul\":2627:2659   */\n      swap1\n      pop\n        /* \"#utility.yul\":2575:2665   */\n      swap2\n      swap1\n      pop\n      jump\t// out\n        /* \"#utility.yul\":2671:2748   */\n    tag_66:\n        /* \"#utility.yul\":2708:2715   */\n      0x00\n        /* \"#utility.yul\":2737:2742   */\n      dup2\n        /* \"#utility.yul\":2726:2742   */\n      swap1\n      pop\n        /* \"#utility.yul\":2671:2748   */\n      swap2\n      swap1\n      pop\n      jump\t// out\n        /* \"#utility.yul\":2754:2934   */\n    tag_78:\n        /* \"#utility.yul\":2802:2879   */\n      0x4e487b7100000000000000000000000000000000000000000000000000000000\n        /* \"#utility.yul\":2799:2800   */\n      0x00\n        /* \"#utility.yul\":2792:2880   */\n      mstore\n        /* \"#utility.yul\":2899:2903   */\n      0x11\n        /* \"#utility.yul\":2896:2897   */\n      0x04\n        /* \"#utility.yul\":2889:2904   */\n      mstore\n        /* \"#utility.yul\":2923:2927   */\n      0x24\n        /* \"#utility.yul\":2920:2921   */\n      0x00\n        /* \"#utility.yul\":2913:2928   */\n      revert\n        /* \"#utility.yul\":2940:3120   */\n    tag_84:\n        /* \"#utility.yul\":2988:3065   */\n      0x4e487b7100000000000000000000000000000000000000000000000000000000\n        /* \"#utility.yul\":2985:2986   */\n      0x00\n        /* \"#utility.yul\":2978:3066   */\n      mstore\n        /* \"#utility.yul\":3085:3089   */\n      0x12\n        /* \"#utility.yul\":3082:3083   */\n      0x04\n        /* \"#utility.yul\":3075:3090   */\n      mstore\n        /* \"#utility.yul\":3109:3113   */\n      0x24\n        /* \"#utility.yul\":3106:3107   */\n      0x00\n        /* \"#utility.yul\":3099:3114   */\n      revert\n        /* \"#utility.yul\":3249:3366   */\n    tag_53:\n        /* \"#utility.yul\":3358:3359   */\n      0x00\n        /* \"#utility.yul\":3355:3356   */\n      dup1\n        /* \"#utility.yul\":3348:3360   */\n      revert\n        /* \"#utility.yul\":3372:3488   */\n    tag_45:\n        /* \"#utility.yul\":3442:3463   */\n      tag_98\n        /* \"#utility.yul\":3457:3462   */\n      dup2\n        /* \"#utility.yul\":3442:3463   */\n      tag_62\n      jump\t// in\n    tag_98:\n        /* \"#utility.yul\":3435:3440   */\n      dup2\n        /* \"#utility.yul\":3432:3464   */\n      eq\n        /* \"#utility.yul\":3422:3482   */\n      tag_99\n      jumpi\n        /* \"#utility.yul\":3478:3479   */\n      0x00\n        /* \"#utility.yul\":3475:3476   */\n      dup1\n        /* \"#utility.yul\":3468:3480   */\n      revert\n        /* \"#utility.yul\":3422:3482   */\n    tag_99:\n        /* \"#utility.yul\":3372:3488   */\n      pop\n      jump\t// out\n        /* \"#utility.yul\":3494:3616   */\n    tag_49:\n        /* \"#utility.yul\":3567:3591   */\n      tag_101\n        /* \"#utility.yul\":3585:3590   */\n      dup2\n        /* \"#utility.yul\":3567:3591   */\n      tag_66\n      jump\t// in\n    tag_101:\n        /* \"#utility.yul\":3560:3565   */\n      dup2\n        /* \"#utility.yul\":3557:3592   */\n      eq\n        /* \"#utility.yul\":3547:3610   */\n      tag_102\n      jumpi\n        /* \"#utility.yul\":3606:3607   */\n      0x00\n        /* \"#utility.yul\":3603:3604   */\n      dup1\n        /* \"#utility.yul\":3596:3608   */\n      revert\n        /* \"#utility.yul\":3547:3610   */\n    tag_102:\n        /* \"#utility.yul\":3494:3616   */\n      pop\n      jump\t// out\n\n    auxdata: 0xa26469706673582212200b7ebb33b17c3658a2d4961db15259e830610f262ddd98ce82c75b634a86ecf264736f6c63430008070033\n}\n",
				"bytecode": {
					"linkReferences": {},
					"object": "6080604052600a600055600260015534801561001a57600080fd5b506104438061002a6000396000f3fe608060405234801561001057600080fd5b50600436106100575760003560e01c8063166e7bdd1461005c578063273d1a3e1461007a578063400bd172146100aa5780635da0e693146100c8578063e581bdca146100f8575b600080fd5b610064610116565b604051610071919061026a565b60405180910390f35b610094600480360381019061008f91906101d7565b61013c565b6040516100a1919061024f565b60405180910390f35b6100b2610143565b6040516100bf919061026a565b60405180910390f35b6100e260048036038101906100dd9190610204565b610169565b6040516100ef919061026a565b60405180910390f35b610100610187565b60405161010d919061026a565b60405180910390f35b600080600a9050600060059050600081836101319190610285565b905080935050505090565b6000919050565b600080600e90506000600c90506000818361015e919061030c565b905080935050505090565b60008060015460005461017c91906102db565b905080915050919050565b600080600f9050600060149050600081836101a29190610285565b905080935050505090565b6000813590506101bc816103df565b92915050565b6000813590506101d1816103f6565b92915050565b6000602082840312156101ed576101ec6103da565b5b60006101fb848285016101ad565b91505092915050565b60006020828403121561021a576102196103da565b5b6000610228848285016101c2565b91505092915050565b61023a81610366565b82525050565b61024981610372565b82525050565b60006020820190506102646000830184610231565b92915050565b600060208201905061027f6000830184610240565b92915050565b600061029082610372565b915061029b83610372565b9250827fffffffffffffffffffffffffffffffffffffffffffffffffffffffffffffffff038211156102d0576102cf61037c565b5b828201905092915050565b60006102e682610372565b91506102f183610372565b925082610301576103006103ab565b5b828204905092915050565b600061031782610372565b915061032283610372565b9250817fffffffffffffffffffffffffffffffffffffffffffffffffffffffffffffffff048311821515161561035b5761035a61037c565b5b828202905092915050565b60008115159050919050565b6000819050919050565b7f4e487b7100000000000000000000000000000000000000000000000000000000600052601160045260246000fd5b7f4e487b7100000000000000000000000000000000000000000000000000000000600052601260045260246000fd5b600080fd5b6103e881610366565b81146103f357600080fd5b50565b6103ff81610372565b811461040a57600080fd5b5056fea26469706673582212200b7ebb33b17c3658a2d4961db15259e830610f262ddd98ce82c75b634a86ecf264736f6c63430008070033",
					"opcodes": "PUSH1 0x80 PUSH1 0x40 MSTORE PUSH1 0xA PUSH1 0x0 SSTORE PUSH1 0x2 PUSH1 0x1 SSTORE CALLVALUE DUP1 ISZERO PUSH2 0x1A JUMPI PUSH1 0x0 DUP1 REVERT JUMPDEST POP PUSH2 0x443 DUP1 PUSH2 0x2A PUSH1 0x0 CODECOPY PUSH1 0x0 RETURN INVALID PUSH1 0x80 PUSH1 0x40 MSTORE CALLVALUE DUP1 ISZERO PUSH2 0x10 JUMPI PUSH1 0x0 DUP1 REVERT JUMPDEST POP PUSH1 0x4 CALLDATASIZE LT PUSH2 0x57 JUMPI PUSH1 0x0 CALLDATALOAD PUSH1 0xE0 SHR DUP1 PUSH4 0x166E7BDD EQ PUSH2 0x5C JUMPI DUP1 PUSH4 0x273D1A3E EQ PUSH2 0x7A JUMPI DUP1 PUSH4 0x400BD172 EQ PUSH2 0xAA JUMPI DUP1 PUSH4 0x5DA0E693 EQ PUSH2 0xC8 JUMPI DUP1 PUSH4 0xE581BDCA EQ PUSH2 0xF8 JUMPI JUMPDEST PUSH1 0x0 DUP1 REVERT JUMPDEST PUSH2 0x64 PUSH2 0x116 JUMP JUMPDEST PUSH1 0x40 MLOAD PUSH2 0x71 SWAP2 SWAP1 PUSH2 0x26A JUMP JUMPDEST PUSH1 0x40 MLOAD DUP1 SWAP2 SUB SWAP1 RETURN JUMPDEST PUSH2 0x94 PUSH1 0x4 DUP1 CALLDATASIZE SUB DUP2 ADD SWAP1 PUSH2 0x8F SWAP2 SWAP1 PUSH2 0x1D7 JUMP JUMPDEST PUSH2 0x13C JUMP JUMPDEST PUSH1 0x40 MLOAD PUSH2 0xA1 SWAP2 SWAP1 PUSH2 0x24F JUMP JUMPDEST PUSH1 0x40 MLOAD DUP1 SWAP2 SUB SWAP1 RETURN JUMPDEST PUSH2 0xB2 PUSH2 0x143 JUMP JUMPDEST PUSH1 0x40 MLOAD PUSH2 0xBF SWAP2 SWAP1 PUSH2 0x26A JUMP JUMPDEST PUSH1 0x40 MLOAD DUP1 SWAP2 SUB SWAP1 RETURN JUMPDEST PUSH2 0xE2 PUSH1 0x4 DUP1 CALLDATASIZE SUB DUP2 ADD SWAP1 PUSH2 0xDD SWAP2 SWAP1 PUSH2 0x204 JUMP JUMPDEST PUSH2 0x169 JUMP JUMPDEST PUSH1 0x40 MLOAD PUSH2 0xEF SWAP2 SWAP1 PUSH2 0x26A JUMP JUMPDEST PUSH1 0x40 MLOAD DUP1 SWAP2 SUB SWAP1 RETURN JUMPDEST PUSH2 0x100 PUSH2 0x187 JUMP JUMPDEST PUSH1 0x40 MLOAD PUSH2 0x10D SWAP2 SWAP1 PUSH2 0x26A JUMP JUMPDEST PUSH1 0x40 MLOAD DUP1 SWAP2 SUB SWAP1 RETURN JUMPDEST PUSH1 0x0 DUP1 PUSH1 0xA SWAP1 POP PUSH1 0x0 PUSH1 0x5 SWAP1 POP PUSH1 0x0 DUP2 DUP4 PUSH2 0x131 SWAP2 SWAP1 PUSH2 0x285 JUMP JUMPDEST SWAP1 POP DUP1 SWAP4 POP POP POP POP SWAP1 JUMP JUMPDEST PUSH1 0x0 SWAP2 SWAP1 POP JUMP JUMPDEST PUSH1 0x0 DUP1 PUSH1 0xE SWAP1 POP PUSH1 0x0 PUSH1 0xC SWAP1 POP PUSH1 0x0 DUP2 DUP4 PUSH2 0x15E SWAP2 SWAP1 PUSH2 0x30C JUMP JUMPDEST SWAP1 POP DUP1 SWAP4 POP POP POP POP SWAP1 JUMP JUMPDEST PUSH1 0x0 DUP1 PUSH1 0x1 SLOAD PUSH1 0x0 SLOAD PUSH2 0x17C SWAP2 SWAP1 PUSH2 0x2DB JUMP JUMPDEST SWAP1 POP DUP1 SWAP2 POP POP SWAP2 SWAP1 POP JUMP JUMPDEST PUSH1 0x0 DUP1 PUSH1 0xF SWAP1 POP PUSH1 0x0 PUSH1 0x14 SWAP1 POP PUSH1 0x0 DUP2 DUP4 PUSH2 0x1A2 SWAP2 SWAP1 PUSH2 0x285 JUMP JUMPDEST SWAP1 POP DUP1 SWAP4 POP POP POP POP SWAP1 JUMP JUMPDEST PUSH1 0x0 DUP2 CALLDATALOAD SWAP1 POP PUSH2 0x1BC DUP2 PUSH2 0x3DF JUMP JUMPDEST SWAP3 SWAP2 POP POP JUMP JUMPDEST PUSH1 0x0 DUP2 CALLDATALOAD SWAP1 POP PUSH2 0x1D1 DUP2 PUSH2 0x3F6 JUMP JUMPDEST SWAP3 SWAP2 POP POP JUMP JUMPDEST PUSH1 0x0 PUSH1 0x20 DUP3 DUP5 SUB SLT ISZERO PUSH2 0x1ED JUMPI PUSH2 0x1EC PUSH2 0x3DA JUMP JUMPDEST JUMPDEST PUSH1 0x0 PUSH2 0x1FB DUP5 DUP3 DUP6 ADD PUSH2 0x1AD JUMP JUMPDEST SWAP2 POP POP SWAP3 SWAP2 POP POP JUMP JUMPDEST PUSH1 0x0 PUSH1 0x20 DUP3 DUP5 SUB SLT ISZERO PUSH2 0x21A JUMPI PUSH2 0x219 PUSH2 0x3DA JUMP JUMPDEST JUMPDEST PUSH1 0x0 PUSH2 0x228 DUP5 DUP3 DUP6 ADD PUSH2 0x1C2 JUMP JUMPDEST SWAP2 POP POP SWAP3 SWAP2 POP POP JUMP JUMPDEST PUSH2 0x23A DUP2 PUSH2 0x366 JUMP JUMPDEST DUP3 MSTORE POP POP JUMP JUMPDEST PUSH2 0x249 DUP2 PUSH2 0x372 JUMP JUMPDEST DUP3 MSTORE POP POP JUMP JUMPDEST PUSH1 0x0 PUSH1 0x20 DUP3 ADD SWAP1 POP PUSH2 0x264 PUSH1 0x0 DUP4 ADD DUP5 PUSH2 0x231 JUMP JUMPDEST SWAP3 SWAP2 POP POP JUMP JUMPDEST PUSH1 0x0 PUSH1 0x20 DUP3 ADD SWAP1 POP PUSH2 0x27F PUSH1 0x0 DUP4 ADD DUP5 PUSH2 0x240 JUMP JUMPDEST SWAP3 SWAP2 POP POP JUMP JUMPDEST PUSH1 0x0 PUSH2 0x290 DUP3 PUSH2 0x372 JUMP JUMPDEST SWAP2 POP PUSH2 0x29B DUP4 PUSH2 0x372 JUMP JUMPDEST SWAP3 POP DUP3 PUSH32 0xFFFFFFFFFFFFFFFFFFFFFFFFFFFFFFFFFFFFFFFFFFFFFFFFFFFFFFFFFFFFFFFF SUB DUP3 GT ISZERO PUSH2 0x2D0 JUMPI PUSH2 0x2CF PUSH2 0x37C JUMP JUMPDEST JUMPDEST DUP3 DUP3 ADD SWAP1 POP SWAP3 SWAP2 POP POP JUMP JUMPDEST PUSH1 0x0 PUSH2 0x2E6 DUP3 PUSH2 0x372 JUMP JUMPDEST SWAP2 POP PUSH2 0x2F1 DUP4 PUSH2 0x372 JUMP JUMPDEST SWAP3 POP DUP3 PUSH2 0x301 JUMPI PUSH2 0x300 PUSH2 0x3AB JUMP JUMPDEST JUMPDEST DUP3 DUP3 DIV SWAP1 POP SWAP3 SWAP2 POP POP JUMP JUMPDEST PUSH1 0x0 PUSH2 0x317 DUP3 PUSH2 0x372 JUMP JUMPDEST SWAP2 POP PUSH2 0x322 DUP4 PUSH2 0x372 JUMP JUMPDEST SWAP3 POP DUP2 PUSH32 0xFFFFFFFFFFFFFFFFFFFFFFFFFFFFFFFFFFFFFFFFFFFFFFFFFFFFFFFFFFFFFFFF DIV DUP4 GT DUP3 ISZERO ISZERO AND ISZERO PUSH2 0x35B JUMPI PUSH2 0x35A PUSH2 0x37C JUMP JUMPDEST JUMPDEST DUP3 DUP3 MUL SWAP1 POP SWAP3 SWAP2 POP POP JUMP JUMPDEST PUSH1 0x0 DUP2 ISZERO ISZERO SWAP1 POP SWAP2 SWAP1 POP JUMP JUMPDEST PUSH1 0x0 DUP2 SWAP1 POP SWAP2 SWAP1 POP JUMP JUMPDEST PUSH32 0x4E487B7100000000000000000000000000000000000000000000000000000000 PUSH1 0x0 MSTORE PUSH1 0x11 PUSH1 0x4 MSTORE PUSH1 0x24 PUSH1 0x0 REVERT JUMPDEST PUSH32 0x4E487B7100000000000000000000000000000000000000000000000000000000 PUSH1 0x0 MSTORE PUSH1 0x12 PUSH1 0x4 MSTORE PUSH1 0x24 PUSH1 0x0 REVERT JUMPDEST PUSH1 0x0 DUP1 REVERT JUMPDEST PUSH2 0x3E8 DUP2 PUSH2 0x366 JUMP JUMPDEST DUP2 EQ PUSH2 0x3F3 JUMPI PUSH1 0x0 DUP1 REVERT JUMPDEST POP JUMP JUMPDEST PUSH2 0x3FF DUP2 PUSH2 0x372 JUMP JUMPDEST DUP2 EQ PUSH2 0x40A JUMPI PUSH1 0x0 DUP1 REVERT JUMPDEST POP JUMP INVALID LOG2 PUSH5 0x6970667358 0x22 SLT KECCAK256 SIGNEXTEND PUSH31 0xBB33B17C3658A2D4961DB15259E830610F262DDD98CE82C75B634A86ECF264 PUSH20 0x6F6C634300080700330000000000000000000000 "
				},
				"gasEstimates": {
					"creation": {
						"codeDepositCost": "218200",
						"executionCost": "44475",
						"totalCost": "262675"
					},
					"external": {
						"addNewValues()": "infinite",
						"addValues()": "infinite",
						"divideCalculator(uint256)": "infinite",
						"multiplyCalculator()": "infinite",
						"remoteControlOpen(bool)": "infinite"
					}
				},
				"methodIdentifiers": {
					"addNewValues()": "e581bdca",
					"addValues()": "166e7bdd",
					"divideCalculator(uint256)": "5da0e693",
					"multiplyCalculator()": "400bd172",
					"remoteControlOpen(bool)": "273d1a3e"
				}
			},
			"storageLayout": {
				"storage": [
					{
						"astId": 78,
						"contract": "learn-functions.sol:learnFunctions",
						"label": "c",
						"offset": 0,
						"slot": "0",
						"type": "t_uint256"
					},
					{
						"astId": 81,
						"contract": "learn-functions.sol:learnFunctions",
						"label": "d",
						"offset": 0,
						"slot": "1",
						"type": "t_uint256"
					}
				],
				"types": {
					"t_uint256": {
						"encoding": "inplace",
						"label": "uint256",
						"numberOfBytes": "32"
					}
				}
			},
			"userdoc": {
				"kind": "user",
				"methods": {},
				"version": 1
			}
		}
	}
}