{
	"learn-functions.sol": {
		"learnFunctions": {
			"abi": [
				{
					"inputs": [],
					"name": "addNewValues",
					"outputs": [
						{
							"internalType": "uint256",
							"name": "",
							"type": "uint256"
						}
					],
					"stateMutability": "pure",
					"type": "function"
				},
				{
					"inputs": [],
					"name": "addValues",
					"outputs": [
						{
							"internalType": "uint256",
							"name": "",
							"type": "uint256"
						}
					],
					"stateMutability": "pure",
					"type": "function"
				},
				{
					"inputs": [],
					"name": "divideCalculator",
					"outputs": [
						{
							"internalType": "uint256",
							"name": "",
							"type": "uint256"
						}
					],
					"stateMutability": "pure",
					"type": "function"
				},
				{
					"inputs": [],
					"name": "multiplyCalculator",
					"outputs": [
						{
							"internalType": "uint256",
							"name": "",
							"type": "uint256"
						}
					],
					"stateMutability": "pure",
					"type": "function"
				},
				{
					"inputs": [
						{
							"internalType": "bool",
							"name": "closedDoor",
							"type": "bool"
						}
					],
					"name": "remoteControlOpen",
					"outputs": [
						{
							"internalType": "bool",
							"name": "",
							"type": "bool"
						}
					],
					"stateMutability": "nonpayable",
					"type": "function"
				}
			],
			"devdoc": {
				"kind": "dev",
				"methods": {},
				"version": 1
			},
			"evm": {
				"assembly": "    /* \"learn-functions.sol\":176:1227  contract learnFunctions {\r... */\n  mstore(0x40, 0x80)\n  callvalue\n  dup1\n  iszero\n  tag_1\n  jumpi\n  0x00\n  dup1\n  revert\ntag_1:\n  pop\n  dataSize(sub_0)\n  dup1\n  dataOffset(sub_0)\n  0x00\n  codecopy\n  0x00\n  return\nstop\n\nsub_0: assembly {\n        /* \"learn-functions.sol\":176:1227  contract learnFunctions {\r... */\n      mstore(0x40, 0x80)\n      callvalue\n      dup1\n      iszero\n      tag_1\n      jumpi\n      0x00\n      dup1\n      revert\n    tag_1:\n      pop\n      jumpi(tag_2, lt(calldatasize, 0x04))\n      shr(0xe0, calldataload(0x00))\n      dup1\n      0x166e7bdd\n      eq\n      tag_3\n      jumpi\n      dup1\n      0x273d1a3e\n      eq\n      tag_4\n      jumpi\n      dup1\n      0x400bd172\n      eq\n      tag_5\n      jumpi\n      dup1\n      0xe0645f7d\n      eq\n      tag_6\n      jumpi\n      dup1\n      0xe581bdca\n      eq\n      tag_7\n      jumpi\n    tag_2:\n      0x00\n      dup1\n      revert\n        /* \"learn-functions.sol\":517:701  function addValues() public pure returns(uint) \r... */\n    tag_3:\n      tag_8\n      tag_9\n      jump\t// in\n    tag_8:\n      mload(0x40)\n      tag_10\n      swap2\n      swap1\n      tag_11\n      jump\t// in\n    tag_10:\n      mload(0x40)\n      dup1\n      swap2\n      sub\n      swap1\n      return\n        /* \"learn-functions.sol\":388:509  function remoteControlOpen(bool closedDoor ) public returns(bool)\r... */\n    tag_4:\n      tag_12\n      0x04\n      dup1\n      calldatasize\n      sub\n      dup2\n      add\n      swap1\n      tag_13\n      swap2\n      swap1\n      tag_14\n      jump\t// in\n    tag_13:\n      tag_15\n      jump\t// in\n    tag_12:\n      mload(0x40)\n      tag_16\n      swap2\n      swap1\n      tag_17\n      jump\t// in\n    tag_16:\n      mload(0x40)\n      dup1\n      swap2\n      sub\n      swap1\n      return\n        /* \"learn-functions.sol\":880:1047  function multiplyCalculator() public pure returns(uint)\r... */\n    tag_5:\n      tag_18\n      tag_19\n      jump\t// in\n    tag_18:\n      mload(0x40)\n      tag_20\n      swap2\n      swap1\n      tag_11\n      jump\t// in\n    tag_20:\n      mload(0x40)\n      dup1\n      swap2\n      sub\n      swap1\n      return\n        /* \"learn-functions.sol\":1055:1222  function divideCalculator() public pure returns(uint)\r... */\n    tag_6:\n      tag_21\n      tag_22\n      jump\t// in\n    tag_21:\n      mload(0x40)\n      tag_23\n      swap2\n      swap1\n      tag_11\n      jump\t// in\n    tag_23:\n      mload(0x40)\n      dup1\n      swap2\n      sub\n      swap1\n      return\n        /* \"learn-functions.sol\":709:871  function addNewValues() public pure returns (uint)\r... */\n    tag_7:\n      tag_24\n      tag_25\n      jump\t// in\n    tag_24:\n      mload(0x40)\n      tag_26\n      swap2\n      swap1\n      tag_11\n      jump\t// in\n    tag_26:\n      mload(0x40)\n      dup1\n      swap2\n      sub\n      swap1\n      return\n        /* \"learn-functions.sol\":517:701  function addValues() public pure returns(uint) \r... */\n    tag_9:\n        /* \"learn-functions.sol\":558:562  uint */\n      0x00\n        /* \"learn-functions.sol\":581:587  uint a */\n      dup1\n        /* \"learn-functions.sol\":590:592  10 */\n      0x0a\n        /* \"learn-functions.sol\":581:592  uint a = 10 */\n      swap1\n      pop\n        /* \"learn-functions.sol\":629:635  uint b */\n      0x00\n        /* \"learn-functions.sol\":638:639  5 */\n      0x05\n        /* \"learn-functions.sol\":629:639  uint b = 5 */\n      swap1\n      pop\n        /* \"learn-functions.sol\":650:661  uint result */\n      0x00\n        /* \"learn-functions.sol\":668:669  b */\n      dup2\n        /* \"learn-functions.sol\":664:665  a */\n      dup4\n        /* \"learn-functions.sol\":664:669  a + b */\n      tag_28\n      swap2\n      swap1\n      tag_29\n      jump\t// in\n    tag_28:\n        /* \"learn-functions.sol\":650:669  uint result = a + b */\n      swap1\n      pop\n        /* \"learn-functions.sol\":687:693  result */\n      dup1\n        /* \"learn-functions.sol\":680:693  return result */\n      swap4\n      pop\n      pop\n      pop\n      pop\n        /* \"learn-functions.sol\":517:701  function addValues() public pure returns(uint) \r... */\n      swap1\n      jump\t// out\n        /* \"learn-functions.sol\":388:509  function remoteControlOpen(bool closedDoor ) public returns(bool)\r... */\n    tag_15:\n        /* \"learn-functions.sol\":448:452  bool */\n      0x00\n        /* \"learn-functions.sol\":388:509  function remoteControlOpen(bool closedDoor ) public returns(bool)\r... */\n      swap2\n      swap1\n      pop\n      jump\t// out\n        /* \"learn-functions.sol\":880:1047  function multiplyCalculator() public pure returns(uint)\r... */\n    tag_19:\n        /* \"learn-functions.sol\":930:934  uint */\n      0x00\n        /* \"learn-functions.sol\":952:958  uint a */\n      dup1\n        /* \"learn-functions.sol\":961:963  14 */\n      0x0e\n        /* \"learn-functions.sol\":952:963  uint a = 14 */\n      swap1\n      pop\n        /* \"learn-functions.sol\":974:980  uint b */\n      0x00\n        /* \"learn-functions.sol\":983:985  12 */\n      0x0c\n        /* \"learn-functions.sol\":974:985  uint b = 12 */\n      swap1\n      pop\n        /* \"learn-functions.sol\":996:1007  uint result */\n      0x00\n        /* \"learn-functions.sol\":1014:1015  b */\n      dup2\n        /* \"learn-functions.sol\":1010:1011  a */\n      dup4\n        /* \"learn-functions.sol\":1010:1015  a * b */\n      tag_32\n      swap2\n      swap1\n      tag_33\n      jump\t// in\n    tag_32:\n        /* \"learn-functions.sol\":996:1015  uint result = a * b */\n      swap1\n      pop\n        /* \"learn-functions.sol\":1033:1039  result */\n      dup1\n        /* \"learn-functions.sol\":1026:1039  return result */\n      swap4\n      pop\n      pop\n      pop\n      pop\n        /* \"learn-functions.sol\":880:1047  function multiplyCalculator() public pure returns(uint)\r... */\n      swap1\n      jump\t// out\n        /* \"learn-functions.sol\":1055:1222  function divideCalculator() public pure returns(uint)\r... */\n    tag_22:\n        /* \"learn-functions.sol\":1103:1107  uint */\n      0x00\n        /* \"learn-functions.sol\":1127:1133  uint a */\n      dup1\n        /* \"learn-functions.sol\":1136:1138  14 */\n      0x0e\n        /* \"learn-functions.sol\":1127:1138  uint a = 14 */\n      swap1\n      pop\n        /* \"learn-functions.sol\":1149:1155  uint b */\n      0x00\n        /* \"learn-functions.sol\":1158:1160  12 */\n      0x0c\n        /* \"learn-functions.sol\":1149:1160  uint b = 12 */\n      swap1\n      pop\n        /* \"learn-functions.sol\":1171:1182  uint result */\n      0x00\n        /* \"learn-functions.sol\":1189:1190  b */\n      dup2\n        /* \"learn-functions.sol\":1185:1186  a */\n      dup4\n        /* \"learn-functions.sol\":1185:1190  a / b */\n      tag_35\n      swap2\n      swap1\n      tag_36\n      jump\t// in\n    tag_35:\n        /* \"learn-functions.sol\":1171:1190  uint result = a / b */\n      swap1\n      pop\n        /* \"learn-functions.sol\":1208:1214  result */\n      dup1\n        /* \"learn-functions.sol\":1201:1214  return result */\n      swap4\n      pop\n      pop\n      pop\n      pop\n        /* \"learn-functions.sol\":1055:1222  function divideCalculator() public pure returns(uint)\r... */\n      swap1\n      jump\t// out\n        /* \"learn-functions.sol\":709:871  function addNewValues() public pure returns (uint)\r... */\n    tag_25:\n        /* \"learn-functions.sol\":754:758  uint */\n      0x00\n        /* \"learn-functions.sol\":776:782  uint a */\n      dup1\n        /* \"learn-functions.sol\":785:787  15 */\n      0x0f\n        /* \"learn-functions.sol\":776:787  uint a = 15 */\n      swap1\n      pop\n        /* \"learn-functions.sol\":798:804  uint b */\n      0x00\n        /* \"learn-functions.sol\":807:809  20 */\n      0x14\n        /* \"learn-functions.sol\":798:809  uint b = 20 */\n      swap1\n      pop\n        /* \"learn-functions.sol\":820:831  uint result */\n      0x00\n        /* \"learn-functions.sol\":838:839  b */\n      dup2\n        /* \"learn-functions.sol\":834:835  a */\n      dup4\n        /* \"learn-functions.sol\":834:839  a + b */\n      tag_38\n      swap2\n      swap1\n      tag_29\n      jump\t// in\n    tag_38:\n        /* \"learn-functions.sol\":820:839  uint result = a + b */\n      swap1\n      pop\n        /* \"learn-functions.sol\":857:863  result */\n      dup1\n        /* \"learn-functions.sol\":850:863  return result */\n      swap4\n      pop\n      pop\n      pop\n      pop\n        /* \"learn-functions.sol\":709:871  function addNewValues() public pure returns (uint)\r... */\n      swap1\n      jump\t// out\n        /* \"#utility.yul\":7:140   */\n    tag_40:\n        /* \"#utility.yul\":50:55   */\n      0x00\n        /* \"#utility.yul\":88:94   */\n      dup2\n        /* \"#utility.yul\":75:95   */\n      calldataload\n        /* \"#utility.yul\":66:95   */\n      swap1\n      pop\n        /* \"#utility.yul\":104:134   */\n      tag_42\n        /* \"#utility.yul\":128:133   */\n      dup2\n        /* \"#utility.yul\":104:134   */\n      tag_43\n      jump\t// in\n    tag_42:\n        /* \"#utility.yul\":7:140   */\n      swap3\n      swap2\n      pop\n      pop\n      jump\t// out\n        /* \"#utility.yul\":146:469   */\n    tag_14:\n        /* \"#utility.yul\":202:208   */\n      0x00\n        /* \"#utility.yul\":251:253   */\n      0x20\n        /* \"#utility.yul\":239:248   */\n      dup3\n        /* \"#utility.yul\":230:237   */\n      dup5\n        /* \"#utility.yul\":226:249   */\n      sub\n        /* \"#utility.yul\":222:254   */\n      slt\n        /* \"#utility.yul\":219:338   */\n      iszero\n      tag_45\n      jumpi\n        /* \"#utility.yul\":257:336   */\n      tag_46\n      tag_47\n      jump\t// in\n    tag_46:\n        /* \"#utility.yul\":219:338   */\n    tag_45:\n        /* \"#utility.yul\":377:378   */\n      0x00\n        /* \"#utility.yul\":402:452   */\n      tag_48\n        /* \"#utility.yul\":444:451   */\n      dup5\n        /* \"#utility.yul\":435:441   */\n      dup3\n        /* \"#utility.yul\":424:433   */\n      dup6\n        /* \"#utility.yul\":420:442   */\n      add\n        /* \"#utility.yul\":402:452   */\n      tag_40\n      jump\t// in\n    tag_48:\n        /* \"#utility.yul\":392:452   */\n      swap2\n      pop\n        /* \"#utility.yul\":348:462   */\n      pop\n        /* \"#utility.yul\":146:469   */\n      swap3\n      swap2\n      pop\n      pop\n      jump\t// out\n        /* \"#utility.yul\":475:584   */\n    tag_49:\n        /* \"#utility.yul\":556:577   */\n      tag_51\n        /* \"#utility.yul\":571:576   */\n      dup2\n        /* \"#utility.yul\":556:577   */\n      tag_52\n      jump\t// in\n    tag_51:\n        /* \"#utility.yul\":551:554   */\n      dup3\n        /* \"#utility.yul\":544:578   */\n      mstore\n        /* \"#utility.yul\":475:584   */\n      pop\n      pop\n      jump\t// out\n        /* \"#utility.yul\":590:708   */\n    tag_53:\n        /* \"#utility.yul\":677:701   */\n      tag_55\n        /* \"#utility.yul\":695:700   */\n      dup2\n        /* \"#utility.yul\":677:701   */\n      tag_56\n      jump\t// in\n    tag_55:\n        /* \"#utility.yul\":672:675   */\n      dup3\n        /* \"#utility.yul\":665:702   */\n      mstore\n        /* \"#utility.yul\":590:708   */\n      pop\n      pop\n      jump\t// out\n        /* \"#utility.yul\":714:924   */\n    tag_17:\n        /* \"#utility.yul\":801:805   */\n      0x00\n        /* \"#utility.yul\":839:841   */\n      0x20\n        /* \"#utility.yul\":828:837   */\n      dup3\n        /* \"#utility.yul\":824:842   */\n      add\n        /* \"#utility.yul\":816:842   */\n      swap1\n      pop\n        /* \"#utility.yul\":852:917   */\n      tag_58\n        /* \"#utility.yul\":914:915   */\n      0x00\n        /* \"#utility.yul\":903:912   */\n      dup4\n        /* \"#utility.yul\":899:916   */\n      add\n        /* \"#utility.yul\":890:896   */\n      dup5\n        /* \"#utility.yul\":852:917   */\n      tag_49\n      jump\t// in\n    tag_58:\n        /* \"#utility.yul\":714:924   */\n      swap3\n      swap2\n      pop\n      pop\n      jump\t// out\n        /* \"#utility.yul\":930:1152   */\n    tag_11:\n        /* \"#utility.yul\":1023:1027   */\n      0x00\n        /* \"#utility.yul\":1061:1063   */\n      0x20\n        /* \"#utility.yul\":1050:1059   */\n      dup3\n        /* \"#utility.yul\":1046:1064   */\n      add\n        /* \"#utility.yul\":1038:1064   */\n      swap1\n      pop\n        /* \"#utility.yul\":1074:1145   */\n      tag_60\n        /* \"#utility.yul\":1142:1143   */\n      0x00\n        /* \"#utility.yul\":1131:1140   */\n      dup4\n        /* \"#utility.yul\":1127:1144   */\n      add\n        /* \"#utility.yul\":1118:1124   */\n      dup5\n        /* \"#utility.yul\":1074:1145   */\n      tag_53\n      jump\t// in\n    tag_60:\n        /* \"#utility.yul\":930:1152   */\n      swap3\n      swap2\n      pop\n      pop\n      jump\t// out\n        /* \"#utility.yul\":1239:1544   */\n    tag_29:\n        /* \"#utility.yul\":1279:1282   */\n      0x00\n        /* \"#utility.yul\":1298:1318   */\n      tag_64\n        /* \"#utility.yul\":1316:1317   */\n      dup3\n        /* \"#utility.yul\":1298:1318   */\n      tag_56\n      jump\t// in\n    tag_64:\n        /* \"#utility.yul\":1293:1318   */\n      swap2\n      pop\n        /* \"#utility.yul\":1332:1352   */\n      tag_65\n        /* \"#utility.yul\":1350:1351   */\n      dup4\n        /* \"#utility.yul\":1332:1352   */\n      tag_56\n      jump\t// in\n    tag_65:\n        /* \"#utility.yul\":1327:1352   */\n      swap3\n      pop\n        /* \"#utility.yul\":1486:1487   */\n      dup3\n        /* \"#utility.yul\":1418:1484   */\n      0xffffffffffffffffffffffffffffffffffffffffffffffffffffffffffffffff\n        /* \"#utility.yul\":1414:1488   */\n      sub\n        /* \"#utility.yul\":1411:1412   */\n      dup3\n        /* \"#utility.yul\":1408:1489   */\n      gt\n        /* \"#utility.yul\":1405:1512   */\n      iszero\n      tag_66\n      jumpi\n        /* \"#utility.yul\":1492:1510   */\n      tag_67\n      tag_68\n      jump\t// in\n    tag_67:\n        /* \"#utility.yul\":1405:1512   */\n    tag_66:\n        /* \"#utility.yul\":1536:1537   */\n      dup3\n        /* \"#utility.yul\":1533:1534   */\n      dup3\n        /* \"#utility.yul\":1529:1538   */\n      add\n        /* \"#utility.yul\":1522:1538   */\n      swap1\n      pop\n        /* \"#utility.yul\":1239:1544   */\n      swap3\n      swap2\n      pop\n      pop\n      jump\t// out\n        /* \"#utility.yul\":1550:1735   */\n    tag_36:\n        /* \"#utility.yul\":1590:1591   */\n      0x00\n        /* \"#utility.yul\":1607:1627   */\n      tag_70\n        /* \"#utility.yul\":1625:1626   */\n      dup3\n        /* \"#utility.yul\":1607:1627   */\n      tag_56\n      jump\t// in\n    tag_70:\n        /* \"#utility.yul\":1602:1627   */\n      swap2\n      pop\n        /* \"#utility.yul\":1641:1661   */\n      tag_71\n        /* \"#utility.yul\":1659:1660   */\n      dup4\n        /* \"#utility.yul\":1641:1661   */\n      tag_56\n      jump\t// in\n    tag_71:\n        /* \"#utility.yul\":1636:1661   */\n      swap3\n      pop\n        /* \"#utility.yul\":1680:1681   */\n      dup3\n        /* \"#utility.yul\":1670:1705   */\n      tag_72\n      jumpi\n        /* \"#utility.yul\":1685:1703   */\n      tag_73\n      tag_74\n      jump\t// in\n    tag_73:\n        /* \"#utility.yul\":1670:1705   */\n    tag_72:\n        /* \"#utility.yul\":1727:1728   */\n      dup3\n        /* \"#utility.yul\":1724:1725   */\n      dup3\n        /* \"#utility.yul\":1720:1729   */\n      div\n        /* \"#utility.yul\":1715:1729   */\n      swap1\n      pop\n        /* \"#utility.yul\":1550:1735   */\n      swap3\n      swap2\n      pop\n      pop\n      jump\t// out\n        /* \"#utility.yul\":1741:2089   */\n    tag_33:\n        /* \"#utility.yul\":1781:1788   */\n      0x00\n        /* \"#utility.yul\":1804:1824   */\n      tag_76\n        /* \"#utility.yul\":1822:1823   */\n      dup3\n        /* \"#utility.yul\":1804:1824   */\n      tag_56\n      jump\t// in\n    tag_76:\n        /* \"#utility.yul\":1799:1824   */\n      swap2\n      pop\n        /* \"#utility.yul\":1838:1858   */\n      tag_77\n        /* \"#utility.yul\":1856:1857   */\n      dup4\n        /* \"#utility.yul\":1838:1858   */\n      tag_56\n      jump\t// in\n    tag_77:\n        /* \"#utility.yul\":1833:1858   */\n      swap3\n      pop\n        /* \"#utility.yul\":2026:2027   */\n      dup2\n        /* \"#utility.yul\":1958:2024   */\n      0xffffffffffffffffffffffffffffffffffffffffffffffffffffffffffffffff\n        /* \"#utility.yul\":1954:2028   */\n      div\n        /* \"#utility.yul\":1951:1952   */\n      dup4\n        /* \"#utility.yul\":1948:2029   */\n      gt\n        /* \"#utility.yul\":1943:1944   */\n      dup3\n        /* \"#utility.yul\":1936:1945   */\n      iszero\n        /* \"#utility.yul\":1929:1946   */\n      iszero\n        /* \"#utility.yul\":1925:2030   */\n      and\n        /* \"#utility.yul\":1922:2053   */\n      iszero\n      tag_78\n      jumpi\n        /* \"#utility.yul\":2033:2051   */\n      tag_79\n      tag_68\n      jump\t// in\n    tag_79:\n        /* \"#utility.yul\":1922:2053   */\n    tag_78:\n        /* \"#utility.yul\":2081:2082   */\n      dup3\n        /* \"#utility.yul\":2078:2079   */\n      dup3\n        /* \"#utility.yul\":2074:2083   */\n      mul\n        /* \"#utility.yul\":2063:2083   */\n      swap1\n      pop\n        /* \"#utility.yul\":1741:2089   */\n      swap3\n      swap2\n      pop\n      pop\n      jump\t// out\n        /* \"#utility.yul\":2095:2185   */\n    tag_52:\n        /* \"#utility.yul\":2129:2136   */\n      0x00\n        /* \"#utility.yul\":2172:2177   */\n      dup2\n        /* \"#utility.yul\":2165:2178   */\n      iszero\n        /* \"#utility.yul\":2158:2179   */\n      iszero\n        /* \"#utility.yul\":2147:2179   */\n      swap1\n      pop\n        /* \"#utility.yul\":2095:2185   */\n      swap2\n      swap1\n      pop\n      jump\t// out\n        /* \"#utility.yul\":2191:2268   */\n    tag_56:\n        /* \"#utility.yul\":2228:2235   */\n      0x00\n        /* \"#utility.yul\":2257:2262   */\n      dup2\n        /* \"#utility.yul\":2246:2262   */\n      swap1\n      pop\n        /* \"#utility.yul\":2191:2268   */\n      swap2\n      swap1\n      pop\n      jump\t// out\n        /* \"#utility.yul\":2274:2454   */\n    tag_68:\n        /* \"#utility.yul\":2322:2399   */\n      0x4e487b7100000000000000000000000000000000000000000000000000000000\n        /* \"#utility.yul\":2319:2320   */\n      0x00\n        /* \"#utility.yul\":2312:2400   */\n      mstore\n        /* \"#utility.yul\":2419:2423   */\n      0x11\n        /* \"#utility.yul\":2416:2417   */\n      0x04\n        /* \"#utility.yul\":2409:2424   */\n      mstore\n        /* \"#utility.yul\":2443:2447   */\n      0x24\n        /* \"#utility.yul\":2440:2441   */\n      0x00\n        /* \"#utility.yul\":2433:2448   */\n      revert\n        /* \"#utility.yul\":2460:2640   */\n    tag_74:\n        /* \"#utility.yul\":2508:2585   */\n      0x4e487b7100000000000000000000000000000000000000000000000000000000\n        /* \"#utility.yul\":2505:2506   */\n      0x00\n        /* \"#utility.yul\":2498:2586   */\n      mstore\n        /* \"#utility.yul\":2605:2609   */\n      0x12\n        /* \"#utility.yul\":2602:2603   */\n      0x04\n        /* \"#utility.yul\":2595:2610   */\n      mstore\n        /* \"#utility.yul\":2629:2633   */\n      0x24\n        /* \"#utility.yul\":2626:2627   */\n      0x00\n        /* \"#utility.yul\":2619:2634   */\n      revert\n        /* \"#utility.yul\":2769:2886   */\n    tag_47:\n        /* \"#utility.yul\":2878:2879   */\n      0x00\n        /* \"#utility.yul\":2875:2876   */\n      dup1\n        /* \"#utility.yul\":2868:2880   */\n      revert\n        /* \"#utility.yul\":2892:3008   */\n    tag_43:\n        /* \"#utility.yul\":2962:2983   */\n      tag_88\n        /* \"#utility.yul\":2977:2982   */\n      dup2\n        /* \"#utility.yul\":2962:2983   */\n      tag_52\n      jump\t// in\n    tag_88:\n        /* \"#utility.yul\":2955:2960   */\n      dup2\n        /* \"#utility.yul\":2952:2984   */\n      eq\n        /* \"#utility.yul\":2942:3002   */\n      tag_89\n      jumpi\n        /* \"#utility.yul\":2998:2999   */\n      0x00\n        /* \"#utility.yul\":2995:2996   */\n      dup1\n        /* \"#utility.yul\":2988:3000   */\n      revert\n        /* \"#utility.yul\":2942:3002   */\n    tag_89:\n        /* \"#utility.yul\":2892:3008   */\n      pop\n      jump\t// out\n\n    auxdata: 0xa2646970667358221220fcb5413e2949bd7a3de8d86427d53513add81b0e771270974310e6aca447881264736f6c63430008070033\n}\n",
				"bytecode": {
					"linkReferences": {},
					"object": "608060405234801561001057600080fd5b506103e0806100206000396000f3fe608060405234801561001057600080fd5b50600436106100575760003560e01c8063166e7bdd1461005c578063273d1a3e1461007a578063400bd172146100aa578063e0645f7d146100c8578063e581bdca146100e6575b600080fd5b610064610104565b604051610071919061021e565b60405180910390f35b610094600480360381019061008f91906101b8565b61012a565b6040516100a19190610203565b60405180910390f35b6100b2610131565b6040516100bf919061021e565b60405180910390f35b6100d0610157565b6040516100dd919061021e565b60405180910390f35b6100ee61017d565b6040516100fb919061021e565b60405180910390f35b600080600a90506000600590506000818361011f9190610239565b905080935050505090565b6000919050565b600080600e90506000600c90506000818361014c91906102c0565b905080935050505090565b600080600e90506000600c905060008183610172919061028f565b905080935050505090565b600080600f9050600060149050600081836101989190610239565b905080935050505090565b6000813590506101b281610393565b92915050565b6000602082840312156101ce576101cd61038e565b5b60006101dc848285016101a3565b91505092915050565b6101ee8161031a565b82525050565b6101fd81610326565b82525050565b600060208201905061021860008301846101e5565b92915050565b600060208201905061023360008301846101f4565b92915050565b600061024482610326565b915061024f83610326565b9250827fffffffffffffffffffffffffffffffffffffffffffffffffffffffffffffffff0382111561028457610283610330565b5b828201905092915050565b600061029a82610326565b91506102a583610326565b9250826102b5576102b461035f565b5b828204905092915050565b60006102cb82610326565b91506102d683610326565b9250817fffffffffffffffffffffffffffffffffffffffffffffffffffffffffffffffff048311821515161561030f5761030e610330565b5b828202905092915050565b60008115159050919050565b6000819050919050565b7f4e487b7100000000000000000000000000000000000000000000000000000000600052601160045260246000fd5b7f4e487b7100000000000000000000000000000000000000000000000000000000600052601260045260246000fd5b600080fd5b61039c8161031a565b81146103a757600080fd5b5056fea2646970667358221220fcb5413e2949bd7a3de8d86427d53513add81b0e771270974310e6aca447881264736f6c63430008070033",
					"opcodes": "PUSH1 0x80 PUSH1 0x40 MSTORE CALLVALUE DUP1 ISZERO PUSH2 0x10 JUMPI PUSH1 0x0 DUP1 REVERT JUMPDEST POP PUSH2 0x3E0 DUP1 PUSH2 0x20 PUSH1 0x0 CODECOPY PUSH1 0x0 RETURN INVALID PUSH1 0x80 PUSH1 0x40 MSTORE CALLVALUE DUP1 ISZERO PUSH2 0x10 JUMPI PUSH1 0x0 DUP1 REVERT JUMPDEST POP PUSH1 0x4 CALLDATASIZE LT PUSH2 0x57 JUMPI PUSH1 0x0 CALLDATALOAD PUSH1 0xE0 SHR DUP1 PUSH4 0x166E7BDD EQ PUSH2 0x5C JUMPI DUP1 PUSH4 0x273D1A3E EQ PUSH2 0x7A JUMPI DUP1 PUSH4 0x400BD172 EQ PUSH2 0xAA JUMPI DUP1 PUSH4 0xE0645F7D EQ PUSH2 0xC8 JUMPI DUP1 PUSH4 0xE581BDCA EQ PUSH2 0xE6 JUMPI JUMPDEST PUSH1 0x0 DUP1 REVERT JUMPDEST PUSH2 0x64 PUSH2 0x104 JUMP JUMPDEST PUSH1 0x40 MLOAD PUSH2 0x71 SWAP2 SWAP1 PUSH2 0x21E JUMP JUMPDEST PUSH1 0x40 MLOAD DUP1 SWAP2 SUB SWAP1 RETURN JUMPDEST PUSH2 0x94 PUSH1 0x4 DUP1 CALLDATASIZE SUB DUP2 ADD SWAP1 PUSH2 0x8F SWAP2 SWAP1 PUSH2 0x1B8 JUMP JUMPDEST PUSH2 0x12A JUMP JUMPDEST PUSH1 0x40 MLOAD PUSH2 0xA1 SWAP2 SWAP1 PUSH2 0x203 JUMP JUMPDEST PUSH1 0x40 MLOAD DUP1 SWAP2 SUB SWAP1 RETURN JUMPDEST PUSH2 0xB2 PUSH2 0x131 JUMP JUMPDEST PUSH1 0x40 MLOAD PUSH2 0xBF SWAP2 SWAP1 PUSH2 0x21E JUMP JUMPDEST PUSH1 0x40 MLOAD DUP1 SWAP2 SUB SWAP1 RETURN JUMPDEST PUSH2 0xD0 PUSH2 0x157 JUMP JUMPDEST PUSH1 0x40 MLOAD PUSH2 0xDD SWAP2 SWAP1 PUSH2 0x21E JUMP JUMPDEST PUSH1 0x40 MLOAD DUP1 SWAP2 SUB SWAP1 RETURN JUMPDEST PUSH2 0xEE PUSH2 0x17D JUMP JUMPDEST PUSH1 0x40 MLOAD PUSH2 0xFB SWAP2 SWAP1 PUSH2 0x21E JUMP JUMPDEST PUSH1 0x40 MLOAD DUP1 SWAP2 SUB SWAP1 RETURN JUMPDEST PUSH1 0x0 DUP1 PUSH1 0xA SWAP1 POP PUSH1 0x0 PUSH1 0x5 SWAP1 POP PUSH1 0x0 DUP2 DUP4 PUSH2 0x11F SWAP2 SWAP1 PUSH2 0x239 JUMP JUMPDEST SWAP1 POP DUP1 SWAP4 POP POP POP POP SWAP1 JUMP JUMPDEST PUSH1 0x0 SWAP2 SWAP1 POP JUMP JUMPDEST PUSH1 0x0 DUP1 PUSH1 0xE SWAP1 POP PUSH1 0x0 PUSH1 0xC SWAP1 POP PUSH1 0x0 DUP2 DUP4 PUSH2 0x14C SWAP2 SWAP1 PUSH2 0x2C0 JUMP JUMPDEST SWAP1 POP DUP1 SWAP4 POP POP POP POP SWAP1 JUMP JUMPDEST PUSH1 0x0 DUP1 PUSH1 0xE SWAP1 POP PUSH1 0x0 PUSH1 0xC SWAP1 POP PUSH1 0x0 DUP2 DUP4 PUSH2 0x172 SWAP2 SWAP1 PUSH2 0x28F JUMP JUMPDEST SWAP1 POP DUP1 SWAP4 POP POP POP POP SWAP1 JUMP JUMPDEST PUSH1 0x0 DUP1 PUSH1 0xF SWAP1 POP PUSH1 0x0 PUSH1 0x14 SWAP1 POP PUSH1 0x0 DUP2 DUP4 PUSH2 0x198 SWAP2 SWAP1 PUSH2 0x239 JUMP JUMPDEST SWAP1 POP DUP1 SWAP4 POP POP POP POP SWAP1 JUMP JUMPDEST PUSH1 0x0 DUP2 CALLDATALOAD SWAP1 POP PUSH2 0x1B2 DUP2 PUSH2 0x393 JUMP JUMPDEST SWAP3 SWAP2 POP POP JUMP JUMPDEST PUSH1 0x0 PUSH1 0x20 DUP3 DUP5 SUB SLT ISZERO PUSH2 0x1CE JUMPI PUSH2 0x1CD PUSH2 0x38E JUMP JUMPDEST JUMPDEST PUSH1 0x0 PUSH2 0x1DC DUP5 DUP3 DUP6 ADD PUSH2 0x1A3 JUMP JUMPDEST SWAP2 POP POP SWAP3 SWAP2 POP POP JUMP JUMPDEST PUSH2 0x1EE DUP2 PUSH2 0x31A JUMP JUMPDEST DUP3 MSTORE POP POP JUMP JUMPDEST PUSH2 0x1FD DUP2 PUSH2 0x326 JUMP JUMPDEST DUP3 MSTORE POP POP JUMP JUMPDEST PUSH1 0x0 PUSH1 0x20 DUP3 ADD SWAP1 POP PUSH2 0x218 PUSH1 0x0 DUP4 ADD DUP5 PUSH2 0x1E5 JUMP JUMPDEST SWAP3 SWAP2 POP POP JUMP JUMPDEST PUSH1 0x0 PUSH1 0x20 DUP3 ADD SWAP1 POP PUSH2 0x233 PUSH1 0x0 DUP4 ADD DUP5 PUSH2 0x1F4 JUMP JUMPDEST SWAP3 SWAP2 POP POP JUMP JUMPDEST PUSH1 0x0 PUSH2 0x244 DUP3 PUSH2 0x326 JUMP JUMPDEST SWAP2 POP PUSH2 0x24F DUP4 PUSH2 0x326 JUMP JUMPDEST SWAP3 POP DUP3 PUSH32 0xFFFFFFFFFFFFFFFFFFFFFFFFFFFFFFFFFFFFFFFFFFFFFFFFFFFFFFFFFFFFFFFF SUB DUP3 GT ISZERO PUSH2 0x284 JUMPI PUSH2 0x283 PUSH2 0x330 JUMP JUMPDEST JUMPDEST DUP3 DUP3 ADD SWAP1 POP SWAP3 SWAP2 POP POP JUMP JUMPDEST PUSH1 0x0 PUSH2 0x29A DUP3 PUSH2 0x326 JUMP JUMPDEST SWAP2 POP PUSH2 0x2A5 DUP4 PUSH2 0x326 JUMP JUMPDEST SWAP3 POP DUP3 PUSH2 0x2B5 JUMPI PUSH2 0x2B4 PUSH2 0x35F JUMP JUMPDEST JUMPDEST DUP3 DUP3 DIV SWAP1 POP SWAP3 SWAP2 POP POP JUMP JUMPDEST PUSH1 0x0 PUSH2 0x2CB DUP3 PUSH2 0x326 JUMP JUMPDEST SWAP2 POP PUSH2 0x2D6 DUP4 PUSH2 0x326 JUMP JUMPDEST SWAP3 POP DUP2 PUSH32 0xFFFFFFFFFFFFFFFFFFFFFFFFFFFFFFFFFFFFFFFFFFFFFFFFFFFFFFFFFFFFFFFF DIV DUP4 GT DUP3 ISZERO ISZERO AND ISZERO PUSH2 0x30F JUMPI PUSH2 0x30E PUSH2 0x330 JUMP JUMPDEST JUMPDEST DUP3 DUP3 MUL SWAP1 POP SWAP3 SWAP2 POP POP JUMP JUMPDEST PUSH1 0x0 DUP2 ISZERO ISZERO SWAP1 POP SWAP2 SWAP1 POP JUMP JUMPDEST PUSH1 0x0 DUP2 SWAP1 POP SWAP2 SWAP1 POP JUMP JUMPDEST PUSH32 0x4E487B7100000000000000000000000000000000000000000000000000000000 PUSH1 0x0 MSTORE PUSH1 0x11 PUSH1 0x4 MSTORE PUSH1 0x24 PUSH1 0x0 REVERT JUMPDEST PUSH32 0x4E487B7100000000000000000000000000000000000000000000000000000000 PUSH1 0x0 MSTORE PUSH1 0x12 PUSH1 0x4 MSTORE PUSH1 0x24 PUSH1 0x0 REVERT JUMPDEST PUSH1 0x0 DUP1 REVERT JUMPDEST PUSH2 0x39C DUP2 PUSH2 0x31A JUMP JUMPDEST DUP2 EQ PUSH2 0x3A7 JUMPI PUSH1 0x0 DUP1 REVERT JUMPDEST POP JUMP INVALID LOG2 PUSH5 0x6970667358 0x22 SLT KECCAK256 0xFC 0xB5 COINBASE RETURNDATACOPY 0x29 0x49 0xBD PUSH27 0x3DE8D86427D53513ADD81B0E771270974310E6ACA447881264736F PUSH13 0x63430008070033000000000000 "
				},
				"gasEstimates": {
					"creation": {
						"codeDepositCost": "198400",
						"executionCost": "238",
						"totalCost": "198638"
					},
					"external": {
						"addNewValues()": "infinite",
						"addValues()": "infinite",
						"divideCalculator()": "infinite",
						"multiplyCalculator()": "infinite",
						"remoteControlOpen(bool)": "infinite"
					}
				},
				"methodIdentifiers": {
					"addNewValues()": "e581bdca",
					"addValues()": "166e7bdd",
					"divideCalculator()": "e0645f7d",
					"multiplyCalculator()": "400bd172",
					"remoteControlOpen(bool)": "273d1a3e"
				}
			},
			"storageLayout": {
				"storage": [],
				"types": null
			},
			"userdoc": {
				"kind": "user",
				"methods": {},
				"version": 1
			}
		}
	}
}