{
	"data": {
		"bytecode": {
			"linkReferences": {},
			"object": "60806040526002600055600a60015534801561001a57600080fd5b506101f78061002a6000396000f3fe608060405234801561001057600080fd5b50600436106100365760003560e01c8063b4a4fad81461003b578063ca5d088014610059575b600080fd5b610043610077565b60405161005091906100f0565b60405180910390f35b610061610095565b60405161006e919061010b565b60405180910390f35b60006005600054141561008d5760019050610092565b600190505b90565b6000600a60015414156100be576000600a6001546100b39190610126565b9050809150506100cf565b600180546100cc9190610126565b90505b90565b6100db8161017c565b82525050565b6100ea81610188565b82525050565b600060208201905061010560008301846100d2565b92915050565b600060208201905061012060008301846100e1565b92915050565b600061013182610188565b915061013c83610188565b9250827fffffffffffffffffffffffffffffffffffffffffffffffffffffffffffffffff0382111561017157610170610192565b5b828201905092915050565b60008115159050919050565b6000819050919050565b7f4e487b7100000000000000000000000000000000000000000000000000000000600052601160045260246000fdfea2646970667358221220da909962136ea23a72722a92682fbaab2cbf9aec51ee53e6459ec55134bcb54264736f6c63430008070033",
			"opcodes": "PUSH1 0x80 PUSH1 0x40 MSTORE PUSH1 0x2 PUSH1 0x0 SSTORE PUSH1 0xA PUSH1 0x1 SSTORE CALLVALUE DUP1 ISZERO PUSH2 0x1A JUMPI PUSH1 0x0 DUP1 REVERT JUMPDEST POP PUSH2 0x1F7 DUP1 PUSH2 0x2A PUSH1 0x0 CODECOPY PUSH1 0x0 RETURN INVALID PUSH1 0x80 PUSH1 0x40 MSTORE CALLVALUE DUP1 ISZERO PUSH2 0x10 JUMPI PUSH1 0x0 DUP1 REVERT JUMPDEST POP PUSH1 0x4 CALLDATASIZE LT PUSH2 0x36 JUMPI PUSH1 0x0 CALLDATALOAD PUSH1 0xE0 SHR DUP1 PUSH4 0xB4A4FAD8 EQ PUSH2 0x3B JUMPI DUP1 PUSH4 0xCA5D0880 EQ PUSH2 0x59 JUMPI JUMPDEST PUSH1 0x0 DUP1 REVERT JUMPDEST PUSH2 0x43 PUSH2 0x77 JUMP JUMPDEST PUSH1 0x40 MLOAD PUSH2 0x50 SWAP2 SWAP1 PUSH2 0xF0 JUMP JUMPDEST PUSH1 0x40 MLOAD DUP1 SWAP2 SUB SWAP1 RETURN JUMPDEST PUSH2 0x61 PUSH2 0x95 JUMP JUMPDEST PUSH1 0x40 MLOAD PUSH2 0x6E SWAP2 SWAP1 PUSH2 0x10B JUMP JUMPDEST PUSH1 0x40 MLOAD DUP1 SWAP2 SUB SWAP1 RETURN JUMPDEST PUSH1 0x0 PUSH1 0x5 PUSH1 0x0 SLOAD EQ ISZERO PUSH2 0x8D JUMPI PUSH1 0x1 SWAP1 POP PUSH2 0x92 JUMP JUMPDEST PUSH1 0x1 SWAP1 POP JUMPDEST SWAP1 JUMP JUMPDEST PUSH1 0x0 PUSH1 0xA PUSH1 0x1 SLOAD EQ ISZERO PUSH2 0xBE JUMPI PUSH1 0x0 PUSH1 0xA PUSH1 0x1 SLOAD PUSH2 0xB3 SWAP2 SWAP1 PUSH2 0x126 JUMP JUMPDEST SWAP1 POP DUP1 SWAP2 POP POP PUSH2 0xCF JUMP JUMPDEST PUSH1 0x1 DUP1 SLOAD PUSH2 0xCC SWAP2 SWAP1 PUSH2 0x126 JUMP JUMPDEST SWAP1 POP JUMPDEST SWAP1 JUMP JUMPDEST PUSH2 0xDB DUP2 PUSH2 0x17C JUMP JUMPDEST DUP3 MSTORE POP POP JUMP JUMPDEST PUSH2 0xEA DUP2 PUSH2 0x188 JUMP JUMPDEST DUP3 MSTORE POP POP JUMP JUMPDEST PUSH1 0x0 PUSH1 0x20 DUP3 ADD SWAP1 POP PUSH2 0x105 PUSH1 0x0 DUP4 ADD DUP5 PUSH2 0xD2 JUMP JUMPDEST SWAP3 SWAP2 POP POP JUMP JUMPDEST PUSH1 0x0 PUSH1 0x20 DUP3 ADD SWAP1 POP PUSH2 0x120 PUSH1 0x0 DUP4 ADD DUP5 PUSH2 0xE1 JUMP JUMPDEST SWAP3 SWAP2 POP POP JUMP JUMPDEST PUSH1 0x0 PUSH2 0x131 DUP3 PUSH2 0x188 JUMP JUMPDEST SWAP2 POP PUSH2 0x13C DUP4 PUSH2 0x188 JUMP JUMPDEST SWAP3 POP DUP3 PUSH32 0xFFFFFFFFFFFFFFFFFFFFFFFFFFFFFFFFFFFFFFFFFFFFFFFFFFFFFFFFFFFFFFFF SUB DUP3 GT ISZERO PUSH2 0x171 JUMPI PUSH2 0x170 PUSH2 0x192 JUMP JUMPDEST JUMPDEST DUP3 DUP3 ADD SWAP1 POP SWAP3 SWAP2 POP POP JUMP JUMPDEST PUSH1 0x0 DUP2 ISZERO ISZERO SWAP1 POP SWAP2 SWAP1 POP JUMP JUMPDEST PUSH1 0x0 DUP2 SWAP1 POP SWAP2 SWAP1 POP JUMP JUMPDEST PUSH32 0x4E487B7100000000000000000000000000000000000000000000000000000000 PUSH1 0x0 MSTORE PUSH1 0x11 PUSH1 0x4 MSTORE PUSH1 0x24 PUSH1 0x0 REVERT INVALID LOG2 PUSH5 0x6970667358 0x22 SLT KECCAK256 0xDA SWAP1 SWAP10 PUSH3 0x136EA2 GASPRICE PUSH19 0x722A92682FBAAB2CBF9AEC51EE53E6459EC551 CALLVALUE 0xBC 0xB5 TIMESTAMP PUSH5 0x736F6C6343 STOP ADDMOD SMOD STOP CALLER "
		},
		"gasEstimates": {
			"creation": {
				"codeDepositCost": "100600",
				"executionCost": "44359",
				"totalCost": "144959"
			},
			"external": {
				"airDrop()": "infinite",
				"validateOranges()": "2458"
			}
		},
		"methodIdentifiers": {
			"airDrop()": "ca5d0880",
			"validateOranges()": "b4a4fad8"
		}
	},
	"abi": [
		{
			"inputs": [],
			"name": "airDrop",
			"outputs": [
				{
					"internalType": "uint256",
					"name": "",
					"type": "uint256"
				}
			],
			"stateMutability": "view",
			"type": "function"
		},
		{
			"inputs": [],
			"name": "validateOranges",
			"outputs": [
				{
					"internalType": "bool",
					"name": "",
					"type": "bool"
				}
			],
			"stateMutability": "view",
			"type": "function"
		}
	]
}